:020000040800F2
:10000000000002209906000895060008F16D00081E
:1000100095060008950600089506000800000000F7
:10002000000000000000000000000000950600082D
:10003000950600080000000095060008756D000890
:100040009506000895060008950600089506000824
:100050009506000895060008950600089506000814
:10006000950600089506000895060008D158000876
:10007000DD58000895060008E9580008F558000802
:10008000B56A0008014E00089506000895060008AC
:1000900095060008950600089506000895060008D4
:1000A00095060008950600089506000895060008C4
:1000B000950600089506000895060008354E0008CC
:1000C00095060008414E000895060008111C01081D
:1000D00095060008A56400084D650008F96500084C
:1000E0009506000895060008000000009506000827
:1000F0009506000895060008950600081D1C0108D5
:100100009506000895060008950600089506000863
:10011000A5660008516700089506000895060008C6
:100120009506000895060008950600089506000843
:100130009506000895060008950600089506000833
:1001400000000000000000000000000000000000AF
:10015000950600089506000895060008FD6700084A
:100160004D4E000895060008856D0008A96D000831
:1001700095060008CD6D0008950600089506000854
:100180009506000895060008A9680008556900084A
:1001900095060008950600089506000895060008D3
:1001A00095060008950600089506000895060008C3
:1001B000F155000895060008950600089506000808
:1001C0009506000895060008614900086D49000879
:1001D000950600087949000895060008950600086C
:1001E0009506000895060008950600089506000883
:1001F0009506000895060008950600089506000873
:100200009506000895060008950600089506000862
:100210009506000895060008950600089506000852
:1002200095060008950600089506000800000000E5
:1002300095060008950600080000000095060008D5
:100240009506000895060008950600089506000822
:100250009506000895060008950600089506000812
:100260009506000895060008950600089506000802
:100270009506000895060008016A000800000000C5
:100280009506000895060008950600080000000085
:080290000000000095060008C3
:1002A00010B5054C237833B9044B13B10448AFF3B0
:1002B00000800123237010BDE00400240000000032
:1002C000A04B010808B5034B1BB103490348AFF32A
:1002D000008008BD00000000E4040024A04B0108D9
:1002E00001F0FF01102A2BDB10F0070F08D010F8E7
:1002F000013B013A8B422DD010F0070F42B3F6D1EB
:10030000F0B441EA012141EA014122F007047FF003
:1003100000070023F0E80256083C85EA010586EA5A
:10032000010685FA47F5A3FA87F586FA47F6A5FA96
:1003300087F68EB9EED1F0BC01F0FF0102F00702A2
:1003400032B110F8013B013A83EA010313B1F8D14D
:100350000020704701387047002D06BF354603382E
:10036000073815F0010F07D1013015F4807F02BF67
:10037000013015F4C03F0130F0BC0138704700BFB8
:10038000034613F8012B002AFBD1181A01387047D5
:1003900053B94AB9002908BF00281CBF4FF0FF31EC
:1003A0004FF0FF3000F074B9ADF1080C6DE904CEE8
:1003B00000F006F8DDF804E0DDE9022304B0704740
:1003C0002DE9F047089D04468E46002B4DD18A4208
:1003D000944669D9B2FA82F252B101FA02F3C2F13B
:1003E000200120FA01F10CFA02FC41EA030E9440CC
:1003F0004FEA1C48210CBEFBF8F61FFA8CF708FBED
:1004000016E341EA034306FB07F199420AD91CEBC4
:10041000030306F1FF3080F01F81994240F21C81F6
:10042000023E63445B1AA4B2B3FBF8F008FB10333E
:1004300044EA034400FB07F7A7420AD91CEB040473
:1004400000F1FF3380F00A81A74240F20781644443
:10045000023840EA0640E41B00261DB1D4400023C8
:10046000C5E900433146BDE8F0878B4209D9002D2C
:1004700000F0EF800026C5E9000130463146BDE8B6
:10048000F087B3FA83F6002E4AD18B4202D3824220
:1004900000F2F980841A61EB030301209E46002DCF
:1004A000E0D0C5E9004EDDE702B9FFDEB2FA82F224
:1004B000002A40F09280A1EB0C014FEA1C471FFA82
:1004C0008CFE0126200CB1FBF7F307FB131140EA69
:1004D00001410EFB03F0884208D91CEB010103F136
:1004E000FF3802D2884200F2CB804346091AA4B2F8
:1004F000B1FBF7F007FB101144EA01440EFB00FECC
:10050000A64508D91CEB040400F1FF3102D2A64530
:1005100000F2BB800846A4EB0E0440EA03409CE7CF
:10052000C6F12007B34022FA07FC4CEA030C20FA7C
:1005300007F401FA06F31C43F9404FEA1C4900FA9C
:1005400006F3B1FBF9F8200C1FFA8CFE09FB181119
:1005500040EA014108FB0EF0884202FA06F20BD98C
:100560001CEB010108F1FF3A80F08880884240F2DC
:100570008580A8F102086144091AA4B2B1FBF9F020
:1005800009FB101144EA014100FB0EFE8E4508D91B
:100590001CEB010100F1FF346CD28E456AD90238A0
:1005A000614440EA0840A0FB0294A1EB0E01A14285
:1005B000C846A64656D353D05DB1B3EB080261EBF3
:1005C0000E0101FA07F722FA06F3F1401F43C5E9CD
:1005D000007100263146BDE8F087C2F12003D84003
:1005E0000CFA02FC21FA03F3914001434FEA1C4745
:1005F0001FFA8CFEB3FBF7F007FB10360B0C43EA37
:10060000064300FB0EF69E4204FA02F408D91CEBE6
:10061000030300F1FF382FD29E422DD902386344E4
:100620009B1B89B2B3FBF7F607FB163341EA034184
:1006300006FB0EF38B4208D91CEB010106F1FF38D3
:1006400016D28B4214D9023E6144C91A46EA0046CA
:1006500038E72E46284605E70646E3E61846F8E65C
:100660004B45A9D2B9EB020864EB0C0E0138A3E7A5
:100670004646EAE7204694E74046D1E7D0467BE786
:10068000023B614432E7304609E76444023842E7FE
:10069000704700BFFEE700BF0B480C4A904203D0F2
:1006A000121A0B4912F014FC0A480B4A904203D06C
:1006B000121A002112F034FC06F04AFD12F0C4FBBD
:1006C00002F0ECFBFEE700BF00000024E004002481
:1006D000D04B0108E0040024045E0024704700BFF2
:1006E000704700BF9AB10368406803EB820C10B4F6
:1006F0000C68496853F8042B44F8042B634550F800
:10070000042B41F8042BF5D15DF8044B704770477A
:1007100008B5034A44F2C751024B034812F04EFB9E
:1007200068440108304401088C46010870B505464C
:1007300082B00E4602B141B3941B0F2C019411D824
:10074000012C286808D1337803700023019C2868A5
:100750006C60035502B070BD64B900236C60035532
:1007600002B070BD002201A9284612F0F3FA019BE5
:100770002860AB602246314612F0AAFB019C286833
:1007800000236C60035502B070BD014812F0DCFA22
:100790009C46010870B5054682B00E4602B141B3D1
:1007A000941B0F2C019411D8012C286808D13378A0
:1007B00003700023019C28686C60035502B070BD73
:1007C00064B900236C60035502B070BD002201A91A
:1007D000284612F0BFFA019B2860AB6022463146E2
:1007E00012F076FB019C286800236C60035502B070
:1007F00070BD014812F0A8FA9C46010810B582B0FD
:10080000002304466946CDE9003305F0C1FA6421AE
:10081000204605F029FB204605F01CFB02B010BD68
:1008200010B5002288B0134901230446CDE9011216
:100830000221CDE903324FF41652059101A9CDE909
:10084000063206F03DF9012806D0204606F0BAF936
:10085000012809D008B010BD074803F0AFFF2046BB
:1008600006F0B0F90128F5D1044803F0A7FF08B05D
:1008700010BD00BF01060107C8460108D4460108A3
:100880000B789FED7D7B012B2DE9F0410446037031
:1008900080ED027B00F09680022B38D1D1F80880E1
:1008A000B8F1000F00F0D8800C2012F086F9002378
:1008B0000746D8E90025C0E90033AD1A836000F08F
:1008C000BA806F4B9D4200F2D580284612F075F930
:1008D00006463544C7E90066BD60D8E9005845457D
:1008E00007D02946103530461036FFF7C9FFA84516
:1008F000F7D123787E60A760012B05D0022B45D16C
:10090000A368002B00F0A8802046BDE8F081032BEF
:1009100011D18D68002D3ED0182012F04EF900F153
:10092000080306460360D5E900120A44FFF732FFC8
:100930002378A660E0E7082B34D18E68002E6CD0B7
:10094000202012F03AF90546D6E90037FF1A0023B5
:100950009F428360C0E9003376D0C0F28B80384676
:1009600012F02BF903461F44C5E90033AF60D6E906
:100970000012571A6AD13B44327ED6E904016B60FB
:10098000A56023782A76C5E90401B5E7032B3DD19C
:10099000A368002BB8D13B4B44F2C6513A4A3B48BE
:1009A00012F00CFA5A1E062AF0D8DFE802F0484A84
:1009B000463F04043800D1E902232046C4E902235B
:1009C000BDE8F0818E68002E4DD0182012F0F5F8A9
:1009D00000230546011D836003714361B068C5E9CA
:1009E000031180B100F058F803461A469B68002BAB
:1009F000FBD10346EA601A46DB68002BFBD1736922
:100A00002A61A8606B612378A56075E7082B7FF4E5
:100A10007BAFA368002B7FF477AFFFF779FED1E9B6
:100A200002232046C4E90223BDE8F0810B7A204668
:100A30002372BDE8F0812E464BE78D686CE78E6827
:100A4000C3E7D1F808802FE73B468CE718463A46C3
:100A500012F04CFA03468EE70D4B44F2C5510A4A98
:100A60000A4812F0ABF90B4B44F2C451064A07484E
:100A700012F0A4F912F065F9000000000000000077
:100A8000F0FFFF7F54470108684401088C460108C5
:100A90001C470108E4460108F8B5044638200D4615
:100AA00012F08BF800F11803064610300360D4E909
:100AB00004120A44FFF76EFE04F1280106F1280033
:100AC000FFF7DEFE00232278E0687560B3603270C5
:100AD000F36018B13146FFF7DFFFF060A56825B37A
:100AE00034463820274612F068F8044600F118030F
:100AF0006A691030236129690A44FFF74BFE05F14A
:100B0000280104F12800FFF7BBFE2A7800232146C4
:100B10002270C4E90233BC606760E86810B1FFF777
:100B2000BBFFE060AD68002DDBD13046F8BD00BFF3
:100B30002DE9F04FD0E900A80D4614468B46A8EBEE
:100B40000A026FF0784185B0B1EB221F039000F0EC
:100B500056811711012F3A4638BF0122BF1802975C
:100B600080F02881029BA5EB0A06002B40F0408113
:100B70000193019B22789819012A9A5594ED027BE2
:100B800080ED027B00F02581022A13D1A16851B1CA
:100B90000021022A9FED9C7B217084ED027B40F0B6
:100BA00011818268A2B99A4B44F2C551994A9A4878
:100BB00012F004F9032A49D1A268002A5AD000226F
:100BC0009FED917B227084ED027B8268002A51D0D8
:100BD000554575D0019B0AF10809574603F11004E9
:100BE0001FE0022B41D1BB68002BDCD00023002288
:100BF00009F8083C0023C7E9022314F8103C012B34
:100C000052D0022B3DD154F8083C002BCBD01037EA
:100C100048460021103400F079F9BD4209F110096D
:100C20004FD019F8083C2646D7E90201012B04F8F9
:100C3000103C44E90201D4D1BB68002BD6D1774BDC
:100C400044F2C451734A744812F0B8F8082A9FD18C
:100C5000A26842B100229FED6C7B227084ED027B82
:100C60008268002AB4D1FFF753FD032B10D1BB6873
:100C7000002BBBD16A4B44F2C651664A664812F05B
:100C80009DF8032B15D154F8083C002BBFD1F1E798
:100C9000082BABD1BB68002BA8D1624B44F2C751E3
:100CA0005C4A5D4812F08AF854F8083C002BAED13B
:100CB000C5E7082BABD154F8083C002BA7D1ECE7D3
:100CC000019E454506F110065FD008351EE0022B57
:100CD00034D1DBF80820002A3FF465AF0022002061
:100CE0000021022B05F8082CCBE9020148D1B3689A
:100CF000002B3FF458AF0BF1100B284600211036A3
:100D000000F004F9D84505F110053ED015F8083C6F
:100D1000DBE90201012B3370C6E90201D7D1DBF810
:100D20000830002B8BD000230020002105F8083C60
:100D3000B368CBE90201002BDDD180E7032B0ED194
:100D4000DBF80830002B95D00023002205F8083C82
:100D50000023CBE90223B368002BCCD18AE7082B10
:100D6000BCD1DBF80830002B97D0002100220023F3
:100D700005F8081CCBE90223B368002BBBD18CE734
:100D8000032BE8D0082BF7D0B5E7BAF1000F06D057
:100D9000039B50469968A1EB0A0111F00CFFDDE9B5
:100DA000012302EB0317039BC3E900269F6005B0F4
:100DB000BDE8F08FA5EB0A061B48029111F0FDFE7D
:100DC0000190D6E6032A3FF400AF082A3FF448AF6B
:100DD000FEE6A268002A3FF432AF002182680020BC
:100DE00021700021C4E90201002A7FF4F1AE26E758
:100DF000029B8B4228BF0B4618010293DEE70B488B
:100E000011F0A5FFAFF3008000000000000000001B
:100E10001C470108684401088C460108E4460108A3
:100E20005447010830440108F0FFFF7F8C47010858
:100E300008B5D0E9013293423BD00A78844691ED5F
:100E4000027B012A1A7083ED027B16D0022A1ED182
:100E50008A68002A43D000220A701A789FED247B0A
:100E6000012A81ED027B29D0022A1CD19A68002A2E
:100E700035D01033CCF8043008BD8A68002AEAD196
:100E80001D4B44F2C4511D4A1D4811F097FF032A1F
:100E900018D18A68002ADED11A4B44F2C651174A8B
:100EA000174811F08BFF032A13D19A68002AE0D16A
:100EB000F2E70A461946FFF73BFE08BD9A68002A8A
:100EC000D7D1DDE7082AC6D18A68002AC3D1FFF747
:100ED0001FFC082ACDD19A68002ACAD1F7E70A4B2D
:100EE00044F2C551054A064811F068FFAFF300808F
:100EF0000000000000000000E4460108684401080A
:100F00008C460108544701081C4701082DE9F04FA1
:100F10004F1E89B00646FBB2012B0CD9072F00F2F9
:100F20002381DFE817F024012F014C012101210169
:100F3000210121015E0100230229CDE90133039340
:100F4000036800F0798101AD5969284600F062FB21
:100F50003368DC6803F10408444541D004F12801FA
:100F60002846FFF765FF204611F08CFE40450446F9
:100F7000F4D1DDE90103834236D10028CED00399B4
:100F8000091A11F018FEC9E7022A44D153F8082CB7
:100F9000002A00F0BF8000220020002103F8102C5E
:100FA0009DF81020012A43E9020147D0022A3FD1CF
:100FB000069A002A00F0AE800021A3F108000294F6
:100FC000FFF7A4FF9DF8101002294FD0012900F06F
:100FD000A880032944D1069B1BB306A8FFF796FF00
:100FE000DDE901038342C8D013F8102CA3F11004EB
:100FF00053E90201012A8DF81020CDE90601C3D181
:1010000053F8082C002AC6D1994B44F2C451994A8E
:10101000994811F0D3FE032A14D153F8082C002A62
:10102000B9D1964B44F2C651924A934811F0C6FE8C
:10103000032A0FD1069A002ABED1F2E7069A002AA7
:10104000BAD1E1E7082AA6D153F8082C002AA2D188
:10105000FFF75EFB082AAFD1069A002AACD1F7E76A
:101060000829BAD1069B002BB7D1F1E7DDF818A00B
:10107000DAE90049A9EB0403002B4FEA23180CDD41
:1010800021462846FFF7D4FEB8F1010804F1100408
:10109000F6D1DDF818A0DAE900494C4523D004F177
:1010A000080BA0460DE0022914D1D8F808308BB304
:1010B00008F110085846FFF729FF0BF1100BC8453F
:1010C0000FD01BF8081C0129EDD1D8F80830002BEF
:1010D000EED199E703290FD1D8F80830002BE7D1DA
:1010E0009FE7CAF804409DF8101001290BD1069B18
:1010F000002B7FF472AF87E70829D9D1D8F80830E0
:10110000002BD5D1A4E702297FF463AF069B002B07
:101110007FF463AF5A4B44F2C551564A564811F01A
:101120004DFEDDF81890D9F80C4009F10408A045EF
:101130000ED004F128012846FFF77AFE204611F070
:10114000A1FD80450446F4D1DDF8189009F10404AE
:10115000D9F8080000F008FA0023C9E90344C9F8E7
:101160000830C9F81430BEE709B0BDE8F08F336825
:10117000986800F0F9F91821306809B0BDE8F04F1F
:1011800011F019BDD6F80080D8E90047BC4245D01F
:1011900004F108050BE0022932D1A368002BB9D075
:1011A00010342846FFF7B2FE1035A74234D015F8A8
:1011B000081C0129EFD1A368002BF1D124E7306886
:1011C000034653F8082B9A4205D081681046013136
:1011D00011F0F1FC3068182109B0BDE8F04F11F0B2
:1011E000EABC306803682BB181681846C91A11F04F
:1011F000E2FC3068202109B0BDE8F04F11F0DBBC03
:10120000032903D1A368002BCAD10AE70829C7D153
:10121000A368002BC4D11BE7D8F800702FB1D8F811
:1012200008103846C91B11F0C6FC0C21306809B003
:10123000BDE8F04F11F0BFBCD3E9003101ADC91AD0
:101240002846091100F0E6F93368D3E900431B1B77
:10125000002B4FEA23187FF7C3AE21462846FFF73D
:10126000E7FDB8F1010804F11004F6D1B8E600BFBB
:10127000E4460108684401088C4601085447010807
:101280001C4701080178012910B504461CD0022929
:1012900007D1836813B304F10800FFF737FE204637
:1012A00010BD032909D18368002BF4D10F4B44F200
:1012B000C6510F4A0F4811F081FD0829EBD1836810
:1012C000002BE8D1FFF724FA8368002BE3D10A4B07
:1012D00044F2C451064A074811F070FD074B44F22E
:1012E000C551034A034811F069FD00BF5447010886
:1012F000684401088C460108E44601081C470108BF
:1013000038B50023044608300D6800F8083C19463B
:101310009FED077B80ED007BFFF7F8FD2046EB1784
:10132000A560E3600523237038BD00BFAFF30080E4
:10133000000000000000000000239FED117B70B54D
:10134000044603700E460830194680ED007BFFF717
:10135000DDFD03231820237011F02FFC054600F15A
:10136000080330462B60FFF70BF831463218284649
:10137000FFF7DCF92046A56070BD00BFAFF3008029
:10138000000000000000000000239FED117B70B5FD
:10139000044603700E460830194680ED007BFFF7C7
:1013A000B5FD03231820237011F007FC054600F15A
:1013B000080330462B60FEF7E3FF3146321828461B
:1013C000FFF7B4F92046A56070BD00BFAFF3008001
:1013D000000000000000000000239FED117B70B5AD
:1013E000044603700E460830194680ED007BFFF777
:1013F0008DFD03231820237011F0DFFB054600F15B
:10140000080330462B60FEF7BBFF314632182846F2
:10141000FFF78CF92046A56070BD00BFAFF30080D8
:10142000000000000000000000239FED117B70B55C
:10143000044603700E460830194680ED007BFFF726
:1014400065FD03231820237011F0B7FB054600F15A
:10145000080330462B60FEF793FF314632182846CA
:10146000FFF764F92046A56070BD00BFAFF30080B0
:10147000000000000000000000239FED117B70B50C
:10148000044603700E460830194680ED007BFFF7D6
:101490003DFD03231820237011F08FFB054600F15A
:1014A000080330462B60FEF76BFF314632182846A2
:1014B000FFF73CF92046A56070BD00BFAFF3008088
:1014C000000000000000000000239FED117B70B5BC
:1014D000044603700E460830194680ED007BFFF786
:1014E00015FD03231820237011F067FB054600F15A
:1014F000080330462B60FEF743FF3146321828467A
:10150000FFF714F92046A56070BD00BFAFF300805F
:10151000000000000000000000239FED117B70B56B
:10152000044603700E460830194680ED007BFFF735
:10153000EDFC03231820237011F03FFB054600F15A
:10154000080330462B60FEF71BFF31463218284651
:10155000FFF7ECF82046A56070BD00BFAFF3008038
:101560000000000000000000002840D038B505460B
:101570002C46E868FFF7F8FFAD6894F828100129B9
:1015800024D0022916D1236B002B31D004F1300076
:10159000FFF7BCFC206904F11803984203D0A1694D
:1015A000013111F008FB3821204611F004FB002D19
:1015B000DED138BD032913D1236B002BE6D1104BAC
:1015C00044F2C6510F4A104811F0F8FB236B002B70
:1015D000DCD10E4B44F2C4510A4A0B4811F0EEFB29
:1015E0000829D3D1236B002BD0D1FFF791F8704796
:1015F000074B44F2C551034A034811F0DFFB00BF1B
:1016000054470108684401088C460108E446010873
:101610001C470108B1F1006F2DE9F84F80F093806D
:1016200004688846836807461B1BB1EB231F59D902
:10163000D0F80490A9EB040B00297BD0080111F02D
:10164000BCFA3C688246D7F804904C453AD00AF17F
:10165000100504F108061FE0022B45D1A368002BFA
:101660006AD000230020002106F8083C15F8103C41
:10167000012BC4E9020151D0022B41D155F8083C9D
:10168000002B59D01034304600211035FFF73EFCB6
:10169000A14506F1100613D016F8083CD4E9020162
:1016A000012B05F8103C45E90201D5D1A368002BB8
:1016B000D7D1264B44F2C451254A264811F07EFB6F
:1016C000D7F80090B9F1000F05D0B9684846A1EBF2
:1016D000090111F070FA0AEB0B030AEB0811C7E9D4
:1016E00000A3B960BDE8F88F032B10D1A368002BCD
:1016F000B7D1194B44F2C651154A164811F05EFB9A
:10170000032B10D155F8083C002BBBD1F1E7082B77
:10171000A7D1A368002BA4D1FEF7FAFF55F8083C27
:10172000002BAFD1C5E7082BACD155F8083C002BF6
:10173000A8D1F1E78A4688E7084B44F2C551044A2C
:10174000044811F03BFB064811F001FBE446010898
:10175000684401088C460108544701081C470108E9
:10176000A84701082DE9F04F044687B015463820F8
:1017700003941C46019111F020FA2B4600F1180247
:1017800007460592026153F8082B9A4200F0008147
:101790000261AA6882612B6000236E682B7294F844
:1017A00000A06B60BAF1010F7E6187F828A0D4E930
:1017B0000201C7E90C0100F0C880BAF1020F15D18F
:1017C000A36863B100230022BAF1020F23704FF027
:1017D0000003C4E9022340F0B0803B6BB3B9814BF6
:1017E00044F2C551804A814811F0E8FABAF1030F7A
:1017F00067D1A268002A00F0C48000222370002371
:10180000C4E902233B6B002B00F0BB80019B9C686A
:1018100004330493002C7DD0D7F810B0B846B146FD
:1018200000E00446D4E904754D452E4628BF4E46D7
:101830002EB132463946584611F03AFB08B9A9EBA9
:1018400005000028D4E90220B6BF0123002310467A
:101850000028E6D141464A46B846B1460F461646EC
:10186000002B58D10294B9F1000F05D04A465946D1
:10187000404611F01DFB00B9A81B002831DBBAF16E
:10188000010F74D0BAF1020F75D13B6B002BA6D0BB
:1018900007F130005146FFF739FB3869059B834259
:1018A00003D0B969013111F086F93846382111F0B9
:1018B00082F9039A002303981460137107B0BDE8FE
:1018C000F08FBAF1080F7FF47DAFA2683AB1002221
:1018D00023700023C4E902233B6B002B96D1FEF753
:1018E00017FF029B002B7AD0049B029A93425ED191
:1018F0000120049B3946029A11F0C8F90199039816
:1019000001224B6907601344027103984B6107B0D1
:10191000BDE8F08F049C019BDB68A34242D02046C7
:10192000029411F0B1F9B146D7F810B00446D0E9ED
:101930000485AE4228BFA94695E7BAF1030F3FF4EC
:1019400061AFBAF1080FC7D060E7A26842B10020CA
:10195000002123703B6BC4E90201002B7FF456AFDA
:10196000234B44F2C451204A204811F027FA3B6B24
:10197000002B8DD1F4E7BAF1030F27D13B6B002B7D
:1019800086D11C4B44F2C651174A184811F016FA7A
:10199000AA68059982615A684A609A688A60DA681A
:1019A000CA60F8E60294049B029A9342A0D054695C
:1019B00013463246A64228BF224622B11969386929
:1019C00011F076FA00B9301BC00F92E7BAF1080F98
:1019D0007FF45EAF3B6B002B7FF45AAF7FE71C4672
:1019E0004DE700BF1C470108684401088C46010808
:1019F000E4460108544701082DE9F04788B0054640
:101A00000E466C469DF8408084E8060002EB4204D6
:101A10000022027044F31C00A2F15532E70001EBF2
:101A2000C40402FB00F04FEAA00E9FEDB57BBEF1AF
:101A3000000F85ED027B40F382820EEB4E0E01F12A
:101A4000180C0A4601EB4E1E1169002908BF114609
:101A500091F80090B9F1020F00F0EB80A11AB1FAF1
:101A600081F149093BB9B8F1020F00F08A80B8F161
:101A7000010F00F00F82002900F08380012318205D
:101A80002B7011F09AF80023A642A86003718360BE
:101A9000436100F10403C0E9033300F00B8106F158
:101AA00018070EE0022940F01281069B002B00F07F
:101AB000B980183606A8FFF729FA1837B44200F0A3
:101AC000F98057F8081C002900F02A8104A8FEF7C5
:101AD000D7FE069B1A6802A8A96802F11003926853
:101AE000FFF740FE9DF810100129DBD1069B002B6B
:101AF000DFD1854B44F2C451844A854811F05EF928
:101B00008968D1E900A1A1EB0A01202940F0C88031
:101B10009AF80010032940F0C38002F14809916D42
:101B2000002908BF494691F800A0BAF1020F40F021
:101B3000B7808968D1E900A1A1EB0A01202940F012
:101B4000AF809AF80010032940F0AA8060320CF1AF
:101B5000600C96457FF478AFA11ADFF8C0C1C910B8
:101B60000CFB01F1022900F0B281032900F09781FA
:101B7000012900F0C481002B80D1B8F1020F7FF45D
:101B80007DAF022382460C202B7011F016F8002343
:101B900081469F428360C0E90033C0F2D381BAF12D
:101BA000000F00F075814FEA0A1A504611F005F84F
:101BB000804608EB0A00A642C9F80080C9F8080070
:101BC00000F0E58006F1180709E04046FEF758FEF0
:101BD000183608F110081837B44200F0D88057F8CA
:101BE000081C0029F1D117F8183C17ED047B012BD4
:101BF00088F8003088ED027B00F0F180022B40F085
:101C0000AF8057F8102C6AB1002200200021022B6F
:101C100007F8182CC6E9020140F0DC80D8F808303B
:101C2000002BD5D13B4B44F2C551384A384811F00E
:101C3000C5F88968D1E90091A1EB090120297FF459
:101C40000DAF99F8001003297FF408AF916A0029BD
:101C500008BF614691F80090B9F1020F09D0A4EBDA
:101C60000C016246B1FA81F14909002B7FF403AF00
:101C7000F9E68968D1E90091A1EB09012029EED1AB
:101C800099F800100329EAD102F13009116C0029FA
:101C900008BF494691F800A0BAF1020F3FF430AFF7
:101CA000A4EB09014A46B1FA81F14909002B7FF4FE
:101CB000E2AED8E62B78012B00F03981022B6FD1F0
:101CC000AB68002BAED0284608B0BDE8F0870329EA
:101CD0000AD1069B002B7FF4ECAE0F4B44F2C651A9
:101CE0000A4A0B4811F06AF808297FF4E2AE069B15
:101CF000002B7FF4DEAEFEF70BFD00BFAFF30080DC
:101D00000000000000000000E446010868440108EB
:101D10008C4601081C47010854470108ABAAAAAA2F
:101D200017F8182C57E90489012A8DF81020CDE9FD
:101D3000068900F08380022A3BD157F8103C002B23
:101D40003FF470AF002300200021022A07F8183C5E
:101D5000C6E9020168D1069B002B7FF4BBAE61E7A8
:101D6000032B4DD157F8103C002BB6D00022002396
:101D700007F8181CC6E90223D8F80830002BACD0AD
:101D8000183608F110081837B4427FF428AF2B78C2
:101D9000C9F80480012BC5F8089094D0022B8FD08D
:101DA000032B6AD1AB68002B97D0284608B0BDE85A
:101DB000F087032A52D157F8103C002B8DD0002217
:101DC000002307F8181CC6E90223069B002B7FF4AA
:101DD00081AE82E7032BCFD0082B1FD0F8E657F84F
:101DE000103C002B3FF485AE07F8181C00200021A2
:101DF000D8F80830C6E90201002B7FF4E9AE78E696
:101E0000082B7FF401AF57F8103C002B3FF473AF61
:101E10000022002307F8181CC6E90223D8F808306E
:101E2000002B7FF4D5AE66E7032ACED0082A069BA6
:101E30007FF450AE002B7FF44DAE5CE757F8103CBA
:101E4000002B3FF456AE0023002207F8181CC6E909
:101E50000223069B002B7FF43DAE4AE6082A7FF45E
:101E600071AF57F8103C002B3FF445AF07F8181C32
:101E700000200021C6E90201D8E7082B7FF423AF38
:101E8000AB68002B3FF437AF284608B0BDE8F087B9
:101E9000D0468EE694423FF4EEAD10F087FF116914
:101EA000002908BF114691F800C0BCF1020F7FF471
:101EB000D5AD8968D1E900C1A1EB0C0120297FF4DF
:101EC000CDAD9CF8001003297FF4C8AD183211691C
:101ED000002908BF114691F800C0BCF1020F7FF441
:101EE000BDAD8968D1E900C1A1EB0C0120297FF4C7
:101EF000B5AD9CF8001003297FF4B0AD183211691C
:101F0000002908BF114691F800C0BCF1020F7FF410
:101F1000A5AD8968D1E900C1A1EB0C0120297FF4AE
:101F20009DAD9CF8001003297FF498AD23E6AB68C3
:101F3000002B3FF4DEAD284608B0BDE8F08701462F
:101F400032460FE6014810F002FF00BFB847010813
:101F50002DE9F04FADF2447D0024C64902250DF570
:101F600097600DF5C166FFF7E7F90AA90DF59A60CC
:101F7000CDF8C8440A94FFF7C3F90DF597630DF542
:101F8000CA62CDF854560DF5D360CDF85036012312
:101F900000950DF5B867CDF8E0440DF5AF680DF587
:101FA000A6690DF59D6A0DF1300B06CAFFF724FDF9
:101FB000B1490DF59160CDF8A846FFF7E5F9AF49B5
:101FC0000DF58B60CDF89844FFF706FAAC490DF596
:101FD0008E60CDF86844FFF727FA0DF58B630DF599
:101FE000CA60CDF88044C6E900350123009596E823
:101FF0000600FFF701FDA3490DF58560CDF86046A9
:10200000FFF712FAA0490DF58860CDF83844FFF7C4
:1020100033FA0DF585630DF5CD60CDF85044C6E972
:1020200000350123009596E80600FFF7E5FC974987
:10203000FEA8CDF87846FFF7CFF9282309A90DF5BA
:102040008260CDF808440993FFF75AF9FEAB0DF50D
:10205000D060CDF82044C6E900350123009596E80C
:102060000600FFF7C9FC0DF5CA630DF59460CDF8C5
:1020700090463360032373600123009596E80600C1
:10208000FFF7BAFC0DF591630DF5D660CDF8B044BD
:10209000C6E900350123009596E80600FFF7ACFC81
:1020A0007B49F2A8CDF8C046FFF76EF97349E6A860
:1020B000F694FFF791F97749ECA8EA94FFF7B4F9A1
:1020C000E6AB3046F094C7E900350123009597E868
:1020D0000600FFF791FC6B49DAA83461FFF7A4F919
:1020E0006949E0A8DE94FFF7C7F9DAAB0DF5C460E3
:1020F000E494C7E900350123009597E80600FFF74F
:102100007BFC6249CEA8B462FFF766F94F2308A9A9
:10211000D4A8D2940893FFF7F3F8CEAB0DF5C760BF
:10212000D894C7E900350123009597E80600FFF72A
:1021300063FC03233E60F8A87B60012300953464B0
:1021400097E80600FFF758FCF2AB0DF5D960FC9458
:10215000C7E900350123009597E80600FFF74CFC1E
:102160004D49C2A8CDF8D846FFF70EF94349B6A8A5
:10217000C694FFF731F94949BCA8BA94FFF77CF936
:10218000B6AB3846C094C8E900350123009598E8FD
:102190000600FFF731FC3B49AAA83C61FFF744F970
:1021A0003949B0A8AE94FFF767F9AAAB0DF5BB604B
:1021B000B494C8E900350123009598E80600FFF7BC
:1021C0001BFC32499EA8BC62FFF706F9252307A92C
:1021D000A4A8A2940793FFF793F89EAB0DF5BE60F9
:1021E000A894C8E900350123009598E80600FFF798
:1021F00003FC0323C8F80070C8A8C8F80430012302
:1022000000953C6498E80600FFF7F6FBC2AB0DF5BD
:10221000DC60CC94C8E900350123009598E80600FD
:10222000FFF7EAFB1E4992A8CDF8F046FFF7ACF89D
:10223000124986A89694FFF7CFF81A498CA88A9479
:10224000FFF742F986AB40469094C9E90035012377
:10225000009599E80600FFF7CFFB0A497AA8C8F86D
:102260001040FFF7E1F8104980A87E94FFF764F86A
:102270001CE000BFEC470108F4470108F8470108DB
:1022800000480108084801081048010814480108DE
:102290001C48010820480108284801082C4801086A
:1022A00030480108344801083C4801087AAB0DF574
:1022B000B2608494C9E900350123009599E80600CD
:1022C000FFF79AFB85496EA8C8F82840FFF784F805
:1022D00006A974A872940694FFF712F86EAB0DF578
:1022E000B5607894C9E900350123009599E80600A6
:1022F000FFF782FB0323C9F8008098A8C9F80430CF
:1023000001230095C8F8404099E80600FFF774FBE8
:1023100092AB0DF5DF609C94C9E90035012300956F
:1023200099E80600FFF768FB6D4962A8CDF80847F9
:10233000FFF72AF86B4956A86694FFF74DF86A49EB
:102340005CA85A94FFF7C0F856AB48466094CAE9B7
:102350000035012300959AE80600FFF74DFB63491D
:102360004AA8C9F81040FFF75FF8614950A84E9499
:10237000FEF7E2FF4AAB0DF5A9605494CAE90035B7
:10238000012300959AE80600FFF736FB53493EA863
:10239000C9F82840FFF720F805A944A842940594FD
:1023A000FEF7AEFF3EAB0DF5AC604894CAE90035D0
:1023B000012300959AE80600FFF71EFB0323CAF8E5
:1023C000009068A8CAF8043001230095C9F840407D
:1023D0009AE80600FFF710FB62AB0DF5E2606C9423
:1023E000CAE90035012300959AE80600FFF704FBCF
:1023F000404932A8CDF82047FEF7C6FF394926A844
:102400003694FEF7E9FF3C492CA82A94FFF784F89C
:1024100026AB1AAA009550463094CDE91A3501230F
:1024200006CAFFF7E9FA31491AA8CAF81040FEF7C0
:10243000FBFF2F4920A81E94FEF77EFF1AAB0EAAC1
:1024400000950DF5A0602494CDE90E35012306CA50
:10245000FFF7D2FA21490EA8CAF82840FEF7BCFFC0
:1024600004A914A812940494FEF74AFF0EAB009539
:102470000DF5A3601894CDE90C3501239BE8060007
:10248000FFF7BAFA032338A8CBE900A3009501238C
:10249000CAF840409BE80600FFF7AEFA32AB0DF5F4
:1024A000E5603C94CBE90035012300959BE80600EC
:1024B000FFF7A2FA0DF5D3630095CBF800300723A0
:1024C000CDF838470DF5E864CBF8043001230B480C
:1024D0009BE80600FFF790FA12E000BF14480108DD
:1024E00044480108F847010848480108084801081D
:1024F0003C480108504801085448010800050024E0
:10250000183C2046FEF7BEFE0DF5D3639C42F7D182
:1025100038A80024FEF7B6FE32A8FEF7B3FE0DF58C
:10252000A360FEF7AFFE0DF5A060FEF7ABFE5046D0
:10253000FEF7A8FE14A8FEF7A5FE0EA8FEF7A2FE61
:1025400020A8FEF79FFE1AA8FEF79CFE2CA8FEF717
:1025500099FE26A8FEF796FE68A8FEF793FE62A8ED
:10256000FEF790FE0DF5AC60FEF78CFE0DF5A96050
:10257000FEF788FE4846FEF785FE44A8FEF782FE79
:102580003EA8FEF77FFE50A8FEF77CFE4AA8FEF7A5
:1025900079FE5CA8FEF776FE56A8FEF773FE98A8B3
:1025A000FEF770FE92A8FEF76DFE0DF5B560FEF722
:1025B00069FE0DF5B260FEF765FE4046FEF762FE6D
:1025C00074A8FEF75FFE6EA8FEF75CFE80A8FEF71B
:1025D00059FE7AA8FEF756FE8CA8FEF753FE86A891
:1025E000FEF750FEC8A8FEF74DFEC2A8FEF74AFE51
:1025F0000DF5BE60FEF746FE0DF5BB60FEF742FE30
:102600003846FEF73FFEA4A8FEF73CFE9EA8FEF764
:1026100039FEB0A8FEF736FEAAA8FEF733FEBCA826
:10262000FEF730FEB6A8FEF72DFEF8A8FEF72AFE4C
:10263000F2A8FEF727FE0DF5C760FEF723FE0DF5A5
:10264000C460FEF71FFE3046FEF71CFED4A8FEF75E
:1026500019FECEA8FEF716FEE0A8FEF713FEDAA8D4
:10266000FEF710FEECA8FEF70DFEE6A8FEF70AFE48
:102670000DF59460FEF706FE0DF59160FEF702FE83
:102680000DF5D060FEF7FEFD0DF5CD60FEF7FAFD0D
:102690000DF5CA60FEF7F6FD0DF58260FEF7F2FD5E
:1026A000FEA8FEF7EFFD0DF58860FEF7EBFD0DF5DA
:1026B0008560FEF7E7FD0DF58E60FEF7E3FD0DF595
:1026C0008B60FEF7DFFD0DF59A60FEF7DBFD0DF583
:1026D0009760FEF7D7FDC44AC4494FF0010BC448C8
:1026E000022510F063FAC3490DF59760FEF724FE4A
:1026F00009A90DF59A60CDF8C844CDF824B0FEF7CD
:10270000FFFD0DF597630DF5CA62CDF854560DF532
:10271000D360CDF850365B460095CDF8E04406CA4C
:10272000FFF76AF9B4490DF59160CDF8A846FEF7B8
:102730002BFEB2490DF58B60CDF89844FEF74CFEA8
:10274000AF490DF58E60CDF86844FEF76DFE0DF5CE
:102750008B630DF5CA60CDF88044C6E900355B4651
:10276000009596E80600FFF747F9A6490DF5856044
:10277000CDF86046FEF758FEA3490DF58860CDF808
:102780003844FEF779FE0DF585630DF5CD60CDF883
:102790005044C6E900355B46009596E80600FFF711
:1027A0002BF99A49FEA8CDF87846FEF715FE08A940
:1027B0000DF58260CDF808440894FEF7A1FDFEAB4C
:1027C0000DF5D060CDF82044C6E900355B46009594
:1027D00096E80600FFF710F90DF5CA630DF5946051
:1027E000CDF890463360032373605B46009596E80E
:1027F0000600FFF701F90DF591630DF5D660CDF8F0
:10280000B044C6E900355B46009596E80600FFF740
:10281000F3F87F49F2A8CDF8C046FEF7B5FD774939
:10282000E6A8F694FEF7D8FD7A49ECA8EA94FEF7FC
:10283000FBFDE6AB3046F094C7E900355B460095FA
:1028400097E80600FFF7D8F86E49DAA83461FEF77A
:10285000EBFD6D49E0A8DE94FEF70EFEDAAB0DF558
:10286000C460E494C7E900355B46009597E806002C
:10287000FFF7C2F86549CEA8B462FEF7ADFD07A91F
:10288000D4A8D2940794FEF73BFDCEAB0DF5C760FC
:10289000D894C7E900355B46009597E80600FFF736
:1028A000ABF803233E60F8A87B605B460095346478
:1028B00097E80600FFF7A0F8F2AB0DF5D960FC949D
:1028C000C7E900355B46009597E80600FFF794F8E6
:1028D0005149C2A8CDF8D846FEF756FD4749B6A8DB
:1028E000C694FEF779FD4D49BCA8BA94FEF7C4FD25
:1028F000B6AB3846C094C8E900355B46009598E809
:102900000600FFF779F83F49AAA83C61FEF78CFD65
:102910003D49B0A8AE94FEF7AFFDAAAB0DF5BB6084
:10292000B494C8E900355B46009598E80600FFF7C7
:1029300063F836499EA8BC62FEF74EFD06A9A4A81E
:10294000A2940694FEF7DCFC9EAB0DF5BE60A89445
:10295000C8E900355B46009598E80600FFF74CF89B
:102960000323C8F80070C8A8C8F804305B46009577
:102970003C6498E80600FFF73FF8C2AB0DF5DC6059
:10298000CC94C8E900355B46009598E80600FFF74F
:1029900033F8234992A8CDF8F046FEF7F5FC174925
:1029A00086A89694FEF718FD1E498CA88A94FEF717
:1029B0008BFD86AB40469094C9E900355B46009597
:1029C00099E80600FFF718F80E497AA8C8F81040F1
:1029D000FEF72AFD144980A87E94FEF7ADFC7AAB81
:1029E0000DF5B260849421E00000002485120008F7
:1029F00000050024EC470108F4470108F8470108E6
:102A00000048010808480108104801081448010856
:102A10001C48010820480108284801082C480108E2
:102A200030480108344801083C480108C9E900352C
:102A30005B46009599E80600FEF7DEFF84496EA824
:102A4000C8F82840FEF7C8FC05A974A8729405943C
:102A5000FEF756FC6EAB0DF5B5607894C9E900350C
:102A60005B46009599E80600FEF7C6FF0323C9F808
:102A7000008098A8C9F804305B460095C8F840402B
:102A800099E80600FEF7B8FF92AB0DF5DF609C9465
:102A9000C9E900355B46009599E80600FEF7ACFFF2
:102AA0006C4962A8CDF80847FEF76EFC6A4956A843
:102AB0006694FEF791FC69495CA85A94FEF704FD00
:102AC00056AB48466094CAE900355B4600959AE8E3
:102AD0000600FEF791FF62494AA8C9F81040FEF7C8
:102AE000A3FC604950A84E94FEF726FC4AAB0DF5B6
:102AF000A9605494CAE900355B4600959AE806003F
:102B0000FEF77AFF52493EA8C9F82840FEF764FC58
:102B100004A944A842940494FEF7F2FB3EAB0DF5E1
:102B2000AC604894CAE900355B4600959AE8060017
:102B3000FEF762FF0323CAF8009068A8CAF80430C1
:102B40005B460095C9F840409AE80600FEF754FF3E
:102B500062AB0DF5E2606C94CAE900355B46009506
:102B60009AE80600FEF748FF3F4932A8CDF8204713
:102B7000FEF70AFC384926A83694FEF72DFC3B499F
:102B80002CA82A94FEF7C8FC26AB1AAA009550463A
:102B90003094CDE91A355B4606CAFEF72DFF304961
:102BA0001AA8CAF81040FEF73FFC2E4920A81E9430
:102BB000FEF7C2FB1AAB0EAA00950DF5A060249497
:102BC000CDE90E355B4606CAFEF716FF20490EA872
:102BD000CAF82840FEF700FC03A914A81294039435
:102BE000FEF78EFB0EAB0AAA00950DF5A3601894B4
:102BF000CDE90A355B4606CAFEF7FEFE03230AAAA4
:102C0000009538A8CAF84040CDE90AA35B4606CA39
:102C1000FEF7F2FE32AB0AAA00950DF5E5603C9492
:102C2000CDE90A355B4606CAFEF7E6FE07220DF53A
:102C3000D363CDF838470B920AAA0DF5E8640A93DE
:102C400000955B460A4806CAFEF7D6FE12E000BFB2
:102C50001448010844480108F84701084848010899
:102C6000084801083C480108504801085448010838
:102C700010050024183C2046FEF704FB0DF5D36335
:102C80009C42F7D138A80024FEF7FCFA32A8FEF7E0
:102C9000F9FA0DF5A360FEF7F5FA0DF5A060FEF761
:102CA000F1FA5046FEF7EEFA14A8FEF7EBFA0EA87A
:102CB000FEF7E8FA20A8FEF7E5FA1AA8FEF7E2FA0E
:102CC0002CA8FEF7DFFA26A8FEF7DCFA68A8FEF7C4
:102CD000D9FA62A8FEF7D6FA0DF5AC60FEF7D2FA83
:102CE0000DF5A960FEF7CEFA4846FEF7CBFA44A8E8
:102CF000FEF7C8FA3EA8FEF7C5FA50A8FEF7C2FADA
:102D00004AA8FEF7BFFA5CA8FEF7BCFA56A8FEF781
:102D1000B9FA98A8FEF7B6FA92A8FEF7B3FA0DF53D
:102D2000B560FEF7AFFA0DF5B260FEF7ABFA4046BC
:102D3000FEF7A8FA74A8FEF7A5FA6EA8FEF7A2FAA5
:102D400080A8FEF79FFA7AA8FEF79CFA8CA8FEF7F7
:102D500099FA86A8FEF796FAC8A8FEF793FAC2A8D1
:102D6000FEF790FA0DF5BE60FEF78CFA0DF5BB602C
:102D7000FEF788FA3846FEF785FAA4A8FEF782FA2D
:102D80009EA8FEF77FFAB0A8FEF77CFAAAA8FEF785
:102D900079FABCA8FEF776FAB6A8FEF773FAF8A897
:102DA000FEF770FAF2A8FEF76DFA0DF5C760FEF7B0
:102DB00069FA0DF5C460FEF765FA3046FEF762FA6F
:102DC000D4A8FEF75FFACEA8FEF75CFAE0A8FEF7FB
:102DD00059FADAA8FEF756FAECA8FEF753FAE6A875
:102DE000FEF750FA0DF59460FEF74CFA0DF5916080
:102DF000FEF748FA0DF5D060FEF744FA0DF5CD6008
:102E0000FEF740FA0DF5CA60FEF73CFA0DF5826058
:102E1000FEF738FAFEA8FEF735FA0DF58860FEF7E2
:102E200031FA0DF58560FEF72DFA0DF58E60FEF78F
:102E300029FA0DF58B60FEF725FA0DF59A60FEF77D
:102E400021FA0DF59760FEF71DFA0C4A0C490D4862
:102E50000FF0ACFE0C48094A0C490460446104625E
:102E60000FF0A4FE0A480B4B044A0B491C60046097
:102E70000DF2447DBDE8F04F0FF098BE0000002435
:102E8000851200081005002424050024E10600082E
:102E90002005002460050024DD0600082DE9F04D22
:102EA0000021AAB0AE4800F063FA0421AC481EAE7F
:102EB00000F0DAF90321AA4824AD00F0B9F9A949D4
:102EC000A74800F0B1F9012001F086FCA648FDF703
:102ED000A7FCA648FDF792FC00230A22A2481C96F4
:102EE00022950A930C928DF8383010938DF8483063
:102EF00014938DF8583018931D938DF878302393E0
:102F00008DF890308DF800300293CDE9083303F04E
:102F100089FE00284CD0002793484FF0000A4FF05C
:102F2000000B03F06BFE3946044606A88DF81070BE
:102F3000CDE906ABFDF7EAFF06229DF800808DF88B
:102F40001020CDE90647B8F1000F40F02981022397
:102F50000C208DF800300FF030FE4146C0F808809C
:102F60000290C0E9008804AAFDF7E2FD9DF8101068
:102F7000012900F0F080022940F0B280069B002B6E
:102F800000F03B8106A8FDF7C1FF7948214601F01A
:102F9000BFFB754803F046FE002800F0FD80704836
:102FA0000A2100F03DF9704803F03CFE0028B2D140
:102FB0009DF80010012900F0AD80022940F08380C7
:102FC000029B002B00F0198102A8FDF79FFF2298B9
:102FD000A84203D0249901310FF0EDFD1C98B042B6
:102FE00003D01E9901310FF0E6FD9DF8581001291C
:102FF00000F08B80022950D1189B002B00F0FD803F
:1030000018A8FDF783FF9DF84810012951D0022927
:1030100037D1149B002B00F0F08014A8FDF776FF49
:103020009DF83810012900F08280022952D1109BAE
:10303000002B00F0E28010A8FDF768FFDDE90847EB
:10304000BC4215D0A06904F12003984203D0216A44
:1030500001310FF0B0FD234653F8080B984203D01E
:10306000A16801310FF0A7FD3834A742EAD1089FCB
:10307000002F3FF431AF0A993846C91B0FF09BFD72
:103080002AE703295FD1149B002BC6D1394B44F2A8
:10309000C651394A39480FF091FE03293FD1189B98
:1030A000002BF3D018A8FDF731FF9DF84810012937
:1030B000ADD1149B002BB0D1314B44F2C4512E4AF8
:1030C0002E480FF07BFE032911D1029B002B7FF4C9
:1030D0007BAFDBE7032957D1109B002BABD1D5E7A2
:1030E000032928D1069B002B7FF44CAFCEE708299B
:1030F0007FF46AAF029B002B7FF466AF214B44F252
:10310000C7511D4A1D480FF059FE189B002B7FF434
:1031100077AFD1E7029B002B7FF456AFCCE70829AD
:103120007FF46EAF189B002B7FF46AAFE6E7109B2D
:10313000002B80D1C0E708297FF424AF069B002B29
:103140007FF420AFDAE708297FF467AF149B002BE8
:103150007FF463AFD2E7069B002B7FF413AFABE79E
:1031600024050024E506000860050024200500244D
:103170006048010854470108684401088C4601086A
:10318000E44601083044010808297FF454AF109B3D
:10319000002B7FF450AFB1E71C4803F027FDFEE69B
:1031A000B8F1020F30D10298D0E901318B423FF4DF
:1031B000DAAE1A708DF810701A789DED067B012A30
:1031C00083ED027BCDE906AB0DD0022A05D19A68CA
:1031D0009AB1103300214360D4E6032A07D19A68DC
:1031E000002AF6D152E79A68002AF2D164E7082A49
:1031F000EFD19A68002AECD180E7054B44F2C55123
:10320000044A05480FF0DAFD0FF0D0FD60050024F8
:103210001C470108684401088C460108FEF798BE67
:10322000084603F0E7BD00BF143001F0FFB900BF4E
:1032300038B500F1140504462DED028B284601F047
:10324000B1F9284601F0AAF92846B0EE408A01F00B
:1032500093F9D0ED007AF8EE677A88EE277ABDEC24
:10326000028B84ED0E7A38BD38B500F114050446A2
:103270002DED028B284601F083F9284601F08EF9E6
:103280002846B0EE408A01F077F9D0ED007AF8EEEA
:10329000677A88EE277ABDEC028B84ED0E7A38BD12
:1032A000F0B5032399B000270125129306462C4B55
:1032B00009A81595CDE90E7340F20453ADF84030DE
:1032C000284BCDE91357099301F05CFB09A801F0E5
:1032D00035FC002835D1244B04AF04460090CDF8CE
:1032E00042301023394604958DF820301F4BCDE92C
:1032F0001650CDE906506846059301F0ADFD082350
:10330000009A01A909A8ADF804508DF80640099467
:103310000295039300F0E4F800230EA93846302408
:10332000049302F061FB03224FF07E5309A906F1DA
:1033300014000B93CDE90942049A01F0EBF819B09F
:10334000F0BD40F60132084B169704AFADF82420CB
:103350000998CDF84230179500F082F8DCE700BFFD
:103360000402040403030001040604030704010B20
:103370002DE9F04304462DED028B83B0002948D09F
:10338000012140F2011200230091ADF804208DF8D4
:103390000630304A0126304B271D304904F12908F8
:1033A000626040F20272A36040F60663E16004F1DD
:1033B00025092682A4F8252084F82760A4F829305E
:1033C00084F82B6003F07AFE6946054648B304F1A1
:1033D00030008DF8066003F0D9FD072D34D104F1DB
:1033E00014052046FFF75CFF284601F0D7F8284671
:1033F000B0EE408A01F0C0F8D0ED007AF8EE677ABE
:1034000088EE277A84ED0E7A03B0BDEC028BBDE81E
:10341000F08340F2011300918DF80610ADF80430EE
:10342000B7E704F1300003F0B1FD3946204601F062
:103430005BFF484601F0A6FA404601F0A3FA04F10A
:10344000120000F077F9CAE73946204601F04CFF38
:10345000C5E700BF0508050905070506050A0606B4
:1034600010B584B003460124ADF8040003A8ADF8FC
:103470000C30ADF80E4001F085FA214603A801F0AA
:103480006BFB204603F0B6FC002103A801F064FBAF
:10349000204603F0AFFC214603A801F05DFB04B019
:1034A00010BD00BF10B5C2F3002384B00C46017CF0
:1034B0008DF80D2043EA4402FA2402238DF80C20F3
:1034C00003AA009401F05EFD18B10124204604B067
:1034D00010BD04460A2003F08DFC204604B010BD48
:1034E000034670B543F8042B044684B007C983E84B
:1034F0000700A37983B91A210B461E22FA252374EB
:103500002046ADF80C20022303AA009501F03AFDF5
:1035100028B1012004B070BD1B210B46EDE70A2045
:1035200003F068FC4FF4B85200950223ADF80C206C
:10353000204603AA217C01F025FD0028E9D10A20BC
:1035400003F058FC41F2027200950223ADF80C2002
:10355000204603AA217C01F015FD0028D9D10A20BC
:1035600003F048FC042200950223ADF80C2020460D
:1035700003AA217C01F006FD0028CAD10A2003F02D
:1035800039FC062200950223ADF80C20204603AA40
:10359000217C01F0F7FC0028BBD10A2003F02AFCB3
:1035A00041F2082200950223ADF80C20204603AA20
:1035B000217C01F0E7FC0028ABD10A20064603F08D
:1035C00019FC0095022303AA217C2046ADF80C606B
:1035D00001F0D8FC00289CD1304603F00BFC00958C
:1035E00022790C232046002A8DF80C3003AA4FF0D4
:1035F000020314BF622142218DF80D10217C01F0DD
:10360000C1FC002885D1304603F0F4FB2279D4E9CF
:1036100002310B43DBB20AB943F0400362790AB1CD
:1036200043F020030E22FA258DF80D302046009538
:1036300002238DF80C2003AA217C01F0A3FC0028B2
:103640007FF467AF0A2003F0D5FB10220095022318
:10365000ADF80C20204603AA217C01F093FC002841
:103660007FF457AF0A2003F0C5FB12210095022317
:10367000ADF80C1003AA217C204601F083FC002841
:103680007FF447AF0A2003F0B5FB01220921204651
:10369000FFF708FF003818BF01203BE7F0B5102303
:1036A00087B0234C012200250126002702A92046CD
:1036B0000195CDE902234FF48052CDE904670AF069
:1036C000ADF9642004F038FB02A94FF48052204683
:1036D000CDE9046702261027CDE902670AF09EF9BA
:1036E0000322102302A92046CDE90223002304224D
:1036F000CDE904234FF480520AF090F940F23223CE
:10370000042202A9019310232046CDE90223019A45
:10371000012305924FF4805204930AF07FF940F69A
:10372000060120460AF09AF9284607B0F0BD00BF0E
:103730006C0500241C4B00221C494FF0400C30B596
:10374000054689B00220596007219A601A62012457
:10375000DA620A224FF4006EDC6006922022CDE984
:10376000000104200821CDE9020103201021CDE948
:10377000040108206946C3E904024FF4C072181D11
:10378000C3E906C24FF48052C3E909E20AF01CF90A
:1037900038B92846FFF782FF003818BF012009B06A
:1037A00030BD204609B030BD6805002440410052BC
:1037B000614A0021D0B513688EB00A91002B40F009
:1037C000B9805E4B01214FF683700C2411600221F9
:1037D000D3F8D4200026032742F48052C3F8D42023
:1037E000D3F8D42002F480520092009AD3F8E0205B
:1037F00042F01002C3F8E020D3F8E02002F01002FB
:103800000192019AD3F8E02042F04002C3F8E02090
:10381000D3F8E02002F040020292029AD3F8E020AE
:1038200042F00802C3F8E020D3F8E02002F00802DA
:103830000392039AD3F8E02042F48072C3F8E020A8
:10384000D3F8E02002F480720492049AD3F8E020C6
:1038500042F08002C3F8E020D3F8E02002F08002BA
:103860000592059AD3F8E02042F02002C3F8E02048
:10387000D3F8E02002F020020692069AD3F8E02066
:1038800042F00402C3F8E020D3F8E0300C9403F0D7
:10389000040307930323079A0B93CDE9080108A9B2
:1038A000274805F0EFFA48F23712022308A9254805
:1038B0000C94CDE90823CDE90A6705F0E3FA4CF250
:1038C0000372022308A920480C94CDE90823CDE90E
:1038D0000A6705F0D7FA40F2FF62022308A91B48E5
:1038E0000C94CDE90823CDE90A6705F0CBFA4FF631
:1038F0000C72022308A916480C94CDE90823CDE9DF
:103900000A6705F0BFFA4FF63F02022308A91148E3
:103910000C94CDE90823CDE90A6705F0B3FA20221B
:10392000022308A90A480C94CDE90A67CDE90823C7
:1039300005F0A8FA0EB0D0BD64050024004402587A
:103940000010025800180258000C025800200258BB
:10395000001C0258001402582DE9F04FDFF81084C3
:1039600006460D46144608F114002DED028B89B071
:1039700000AF02F031F9D8F8143073B3D8F818302A
:10398000D8F80490002B43690BBF4FF0080A4FF0A2
:10399000100A4FF0020B4FF0040BB9F1000F2AD0C0
:1039A000A200EA46012B02F1070222F00702ADEB6A
:1039B000020D6846ADEB020D694600F03F81022B17
:1039C00000F0D680002B6FD02246C847D54624375A
:1039D000BD46BDEC028BBDE8F08FD8F81830002B47
:1039E000F5D0D8F804904FF0080A4FF0020B436965
:1039F000B9F1000FD4D1FB61D8F80030BB61002BC6
:103A0000E5D0D54802F05AF96B46BBF1020F786158
:103A100008EE103AFB6900F083816A465146A2EB3A
:103A2000C40295466200EA46B2FBFBF2AAEBC40070
:103A300085460AEB8200EE46F861ADEB010DF869B0
:103A40000EEB820CC7F810C0EC46ADEB010D00EB9D
:103A50008201CCF80400CCF8081001EB820138692F
:103A6000E946CCF80C1000EB8201CCF800A001EB89
:103A70008202C9E900E0C9E90212012B00F0648367
:103A8000022B00F06C82002B00F080816208494616
:103A90006046BB69984718EE103A24379D46BD46EC
:103AA000BDEC028BBDE8F08F002C8DD01A46D8ED0E
:103AB0000B6A9FEDB27A8446331D36F922E00CF191
:103AC000080C07EE90EA33F922E00232F8EEE77ACA
:103AD000944267EE877A67EEA67A4CED027A07EE9B
:103AE00090EAF8EEE77A67EE877A67EEA67A4CED11
:103AF000017AE2D8F9612246C847984ED8ED046AA7
:103B00000020F9692B1D9FED9E7A9FED9E6ADFEDE7
:103B10009E5A22E0F4EEC67AF1EE10FAC0F2C884A2
:103B200047F6FE72D1ED017A45F8202066EEA77ABD
:103B3000F4EEC77AF1EE10FA40F2F080F4EEC67AB5
:103B4000F1EE10FAC0F2D58447F6FE7243F8202059
:103B50000230083184427FF639AFD1ED007A66EE4B
:103B6000A77AF4EEC77AF1EE10FAD3D83246D9E745
:103B7000002C3FF429AFD8ED0B6A84469FED787A8C
:103B80000022331D8E4656F822100CF1080C07EE69
:103B9000901A53F822100232F8EEE77A944267EE58
:103BA000877A67EEA67A4CED027A07EE901AF8EE65
:103BB000E77A67EE877A67EEA67A4CED017AE2D86B
:103BC00071462246C7F81CE0C847664ED8ED046A25
:103BD0000020F9692B1D9FED6A7A9FED6A6ADFF874
:103BE00094C120E0F4EEC67AF1EE10FAC0F27984C6
:103BF0003246D1ED017A45F8202066EEA77AF4EE40
:103C0000C77AF1EE10FA40F28780F4EEC67AF1EE50
:103C100010FAC0F25E84324643F8202002300831A8
:103C200084427FF6D3AED1ED007A66EEA77AF4EE49
:103C3000C77AF1EE10FAD5D86246DAE7002C3FF4E5
:103C4000C3AED8ED0B6A86469FED477A4FF0000C65
:103C5000331D56F82C200EF1080E82F40002A2F556
:103C6000000207EE902A53F82C200CF1020CF8EE1B
:103C7000E77A82F400026445A2F5000267EE877AD3
:103C800067EEA67A4EED027A07EE902AF8EEE77A12
:103C900067EE877A67EEA67A4EED017AD9D8F96198
:103CA0002246C847314ED8ED046A0020F9692B1D21
:103CB0009FED337A9FED336ADFF8BCC01FE0F4EE6E
:103CC000C67AF1EE10FAC0F2FC833246D1ED017AE9
:103CD00045F8202066EEA77AF4EEC77AF1EE10FAE6
:103CE00018D9F4EEC67AF1EE10FAC0F2DA83324651
:103CF00043F820200230083184427FF667AED1EDD0
:103D0000007A66EEA77AF4EEC77AF1EE10FAD6D80A
:103D10006246DBE76246EBE762467DE7324615E73F
:103D2000A100D6466208073121F00701ADEB010D75
:103D3000EA46ADEB010D6946ADEB0E0D0AEB8200D4
:103D4000EC46ADEB0E0D01EB8202F861E946CCE9E1
:103D500000A0C9E9001290E6B80500240280FFFF28
:103D6000000000300082FF7F0000003482FF7F00EF
:103D7000A0050024007E00807E0080FF0000003847
:103D800004FF7FBF04FF7F3F00FEFF46002C00F0D2
:103D9000C982BBF1020FD8F8202000F0FA827969BD
:103DA000C7F8049002EB810E5FED0C5A8A00DCF834
:103DB00008100EF104007A611A46DCF80C303B6101
:103DC000331DD7F810903D61FD69C7E902CB8C46E1
:103DD000834636F92210D8ED0B7A06EE101A33F925
:103DE000221006EE901A3EF92210B8EEC66A07EECF
:103DF000101AF8EEE66A3BF92210B8EEC77A26EE02
:103E0000256A66EEA56A27EE257A26EE276A66EE13
:103E1000A76A27EE277A07EE901A51080232F8EEC9
:103E2000E77A0AEB8100944280ED006A05EB81009D
:103E300067EEA57AC0ED006A0CEB810009EB810109
:103E400080ED007A98ED0B7A67EE877AC1ED007A03
:103E5000BFD8D7F804903D69D7E902CB6046620825
:103E6000BB6949469847D8F828307A69D8ED046A82
:103E70001A441FED3D7A1FED3D6A2B1D904602F15D
:103E8000040A5FED3F5A0022A84ED9E900EC51E048
:103E9000F4EEC67AF1EE10FAC0F2C78247F6FE7071
:103EA00045F822000CEB0100D0ED007A66EEA77A0F
:103EB000F4EEC77AF1EE10FA4BD9F4EEC67AF1EED1
:103EC00010FAC0F2BA8247F6FE70BBF1020F43F857
:103ED00022002BD0D9F808000844D0ED007A66EE15
:103EE000A77AF4EEC77AF1EE10FA36D9F4EEC67A74
:103EF000F1EE10FAC0F2CD8247F6FE7048F82200CB
:103F0000D9F80C000144D1ED007A66EEA77AF4EE00
:103F1000C77AF1EE10FA1ED9F4EEC67AF1EE10FA75
:103F2000C0F2AF8247F6FE714AF822100232944284
:103F30007FF6B1AD51080EEB81008900D0ED007A1B
:103F400066EEA77AF4EEC77AF1EE10FAA0D8304602
:103F5000A6E73046B9E73146E6E73046CEE7002C23
:103F600000F0E081BBF1020FD8F8203000F0E181D1
:103F70007A69DCF8081003EB820EC7F8049093000E
:103F8000DFED6B5A0EF1040000227B61DCF80C308F
:103F90003B61331DD7F810903D61FD69C7E902CB45
:103FA0008C46834656F82210D8ED0B7A07EE101A8D
:103FB00053F82210B8EEC76A07EE101A5EF8221006
:103FC000F8EEC76A07EE101A26EE256A5BF8221093
:103FD000B8EEC77A66EEA56A26EE276A27EE257A3E
:103FE00066EEA76A27EE277A07EE901A510802328A
:103FF000F8EEE77A0AEB8100944280ED006A05EB67
:10400000810067EEA57AC0ED006A0CEB810009EB38
:10401000810180ED007A98ED0B7A67EE877AC1ED29
:10402000007ABFD8D7F804903D69D7E902CB604643
:104030006208BB6949469847D8F828307A69D8EDB4
:10404000046A1A449FED3E7A9FED3E6A131D924624
:10405000DFF8E4C00022FB612B1D364ED9E9008E4B
:104060004EE0F4EEC67AF1EE10FAC0F2FC81304672
:1040700045F822000EEB0100D0ED007A66EEA77A3B
:10408000F4EEC77AF1EE10FA49D9F4EEC67AF1EE01
:1040900010FAC0F2EF813046BBF1020F43F8220064
:1040A0002AD0D9F808000844D0ED007A66EEA77A45
:1040B000F4EEC77AF1EE10FA35D9F4EEC67AF1EEE5
:1040C00010FAC0F2C98130464AF82200D9F80C0033
:1040D0000144D1ED007A66EEA77AF4EEC77AF1EEEC
:1040E00010FA1ED9F4EEC67AF1EE10FAC0F2AD81E4
:1040F0003146F86940F82210023294427FF6CBAC88
:10410000510808EB81008900D0ED007A66EEA77AAD
:10411000F4EEC77AF1EE10FAA3D86046A8E760463D
:10412000BAE76146E5E76046CEE700BF0280FFFFE1
:10413000000000300082FF7F007E0080000000341D
:1041400004FF7FBF04FF7F3F002C00F0EB807A6903
:104150000021D8F82030C7F8109003EB820ED7F872
:104160001C909300FD610EF104021FED0C6A7B614F
:10417000331D154656F821204808D8ED0B6ABBF1CF
:10418000020F82F40002A2F5000207EE902A53F813
:10419000212082F40002B8EEE77AA2F5000227EEB1
:1041A000067A07EE902A0AEB8002F8EEE77A27EE0D
:1041B000267A67EE867A82ED007A09EB80024FEA72
:1041C000800067EEA67AC2ED007A27D05EF8212043
:1041D00082F40002A2F5000207EE902A55F8212091
:1041E00082F40002B8EEE77AA2F5000227EE067A22
:1041F00007EE902ADCF80820F8EEE77A024427EE72
:10420000267A67EE867A82ED007A98ED0B7ADCF8F2
:104210000C2067EE877A0244C2ED007A02318C42AC
:10422000A8D8D7F8109060466208BB694946FD6976
:104230009847D8F828307A69D8ED046A1A441FEDF7
:10424000407A1FED406A131D9246DFF8C4C2002277
:10425000FB612B1DAB4ED9E9008E4EE0F4EEC67A21
:10426000F1EE10FAC0F2C580304645F822000EEBA0
:104270000100D0ED007A66EEA77AF4EEC77AF1EE8F
:1042800010FA49D9F4EEC67AF1EE10FAC0F2BF8006
:104290003046BBF1020F43F822002AD0D9F80800BB
:1042A0000844D0ED007A66EEA77AF4EEC77AF1EE14
:1042B00010FA35D9F4EEC67AF1EE10FAC0F2AE80FB
:1042C00030464AF82200D9F80C000144D1ED007ABA
:1042D00066EEA77AF4EEC77AF1EE10FA1ED9F4EE84
:1042E000C67AF1EE10FAC0F28B803146F86940F8D8
:1042F0002210023294427FF6CEAB510808EB8100C7
:104300008900D0ED007A66EEA77AF4EEC77AF1EE76
:1043100010FAA3D86046A8E76046BAE76146E5E729
:104320006046CEE7224649466046BB699847FFF79C
:10433000B2BBC7F810B0002298ED0B6A331DDFED59
:10434000726AD7F81CB0786956F8221007EE901AF6
:1043500053F82210B8EEE77A07EE901A51080232AD
:10436000F8EEE77A27EE267A0AEB810E94420BEB01
:10437000810167EEA67A27EE067A67EE867A8EEDE1
:10438000007AC1ED007ADFD88300D7F810B07B61E6
:104390004DE61A46C7F810B098ED0B6A331DDFEDF5
:1043A0005B6AD7F81CB0786936F9221007EE101A4C
:1043B00033F9221007EE901AB8EEC77A510802328C
:1043C000F8EEE77A27EE267A0AEB810E94420BEBA1
:1043D000810167EEA67A27EE067A67EE867A8EED81
:1043E000007AC1ED007ADFD88300D7F810B07B6186
:1043F00034E5F0EE675AFEEEE45A15EE900A34E723
:10440000F0EE675AFEEEE45A15EE901A6EE7F0EE03
:10441000675AFEEEE45A15EE900A3AE7F0EE675A54
:10442000FEEEE45A15EE900A4BE767EEA57AFDEE34
:10443000E77A17EE900A00B232E567EEA57AFDEE54
:10444000E77A17EE900A00B23FE5F0EE675AFEEE0B
:10445000E05A15EE901A4CE6F0EE675AFEEEE05A7E
:1044600015EE900A30E6F0EE675AFEEEE05A15EED1
:10447000900AFDE5F0EE675AFEEEE05A15EE900A5E
:104480000AE667EEA57AFDEEE77A17EE901A09B212
:104490004AE567EEA57AFDEEE77A17EE900A00B2DC
:1044A0002CE5F0EE675AFEEEE45A15EE902A1FE472
:1044B00067EEA57AFDEEE77A17EE902A12B2FFF7C3
:1044C00031BBF0EE675AFEEEE45A15EE902AFFF784
:1044D000FDBBF0EE675AFEEEE05A15EE902AFFF7AC
:1044E0009BBBF0EE675AFEEEE05A15EE902AFFF7FE
:1044F00080BB67EEA57AFDEEE77A17EE902A12B23E
:10450000FFF724BB82FF7F0000000030000000386E
:104510007E0080FF30B5154C154685B0046004F16F
:10452000080C01AB07C98CE80700D4ED047AF5EE5E
:10453000C07A83E80700F1EE10FA14DDF7EE006AA6
:1045400086EEA77A84ED0B7A6DB1204640F8145FB1
:1045500001F042FB064903690020064AE1616262FC
:10456000E36005B030BD012005B030BDA0050024DA
:10457000002000300000003000680830704700BFA5
:10458000B1F5807F03680A4628BF4FF48072B1F509
:10459000807F9A6094BF002001207047006814302B
:1045A00001F07ABB70B504688AB06369E160CBB191
:1045B00004F11405284601F00FFB8446EE46E66838
:1045C000BCE80F00AEE80F00BCE80F00AEE80F003B
:1045D0009CE803008EE8030069462846049601F033
:1045E00003FAF8B9A069D8B104F11805284601F01A
:1045F000F3FA8446EE46E468BCE80F00AEE80F002C
:10460000BCE80F00AEE80F009CE803008EE8030052
:1046100069462846049401F0E7F9003818BF0120E4
:104620000AB070BD01200AB070BD00BF30B504688B
:1046300083B00D46A3694BB1A3680020A26A216A2A
:104640009B00009004F1180001F0C8FAA368074825
:10465000626A9B00E169009004F1140001F0BEFA67
:104660000020C4E9005003B030BD00BF5939000834
:10467000024B0022C3E90522704700BFA0050024B9
:10468000704700BFF8B5134F3C687F2C07D98023D3
:10469000114A42F224411C463B60A2F87E100F4DA5
:1046A0002B68012B0AD90C4E0D4D22463146284667
:1046B00000F04CF90028F8D13860F8BD22460649D0
:1046C000074800F043F90028F7D12B683860013320
:1046D0002B60F8BDD4050024D8050024D0050024A3
:1046E0005806002410B5084C02460B4607482168BE
:1046F0000844C1F180010FF0ADF823681844206030
:10470000FFF7C0FF10BD00BFD4050024D80500246A
:104710000FB400B583B004A951F8040B0191FFF761
:10472000E1FF03B05DF804EB04B0704730B4154C02
:104730002168F1B14B1E144DE81810F801298C4680
:1047400019460A2A01D00D2A02D14BB1013BF4E7E8
:104750000CF102037F2B10D98023236030BC7047FB
:104760000122022323600D200A236854AB5430BC7D
:10477000704701220223044DF4E70CF10102614667
:10478000F0E700BFD4050024D805002410B5094C7B
:1047900002460B46084821680844C1F180010FF029
:1047A00059F8236818442060FFF7C0FFFFF76AFF3D
:1047B00010BD00BFD4050024D80500240FB400B5F7
:1047C00083B004A951F8040B0191FFF7DFFF03B098
:1047D0005DF804EB04B0704710B5044600210848AA
:1047E00000F02EF8002C074B14BF022200220648CE
:1047F0001A60FFF7E3FF0548FFF7E0FF10BD00BFB9
:1048000058060024D00500246448010874480108B3
:10481000064A0749074808B50EF0C8F9034A044993
:104820000548BDE808400EF0C1B900BF00000024F3
:1048300081460008580600245C060024704700BF2B
:10484000012910B506D0022915D051B1BDE810409C
:1048500006F0FAB90A46344834490CF0CFF9E8B109
:10486000FEE7334B0A46334C334934481C600CF0A6
:10487000C5F968B1FEE701222C492B480CF0BEF9BE
:1048800000B1FEE72E4928480CF0DAF9C0B1FEE786
:104890002B492A480CF0D4F960B1FEE72849224898
:1048A0000CF0CEF900B1FEE726491F480CF056F98E
:1048B00008B3FEE7244921480CF050F9A8B1FEE7FF
:1048C000204919480CF04AF900B1FEE716480CF0EF
:1048D000CDF9024640B9164B164C174917481C60D3
:1048E0000CF08CF968B1FEE7FEE714480CF0BEF955
:1048F0000028ABD0FEE70C480CF0B8F90028A5D092
:10490000FEE70F490D480CF09BF900B1FEE70E4998
:104910000A480CF023F900B1FEE708480CF0A6F9AC
:10492000002893D0FEE700BFFC0800249401002477
:10493000980B00243D4800087801002460060024FC
:10494000FC0100245801002448010024084691B2CB
:1049500008B502F0EDFC003818BF012008BD00BF0B
:10496000014805F04FBC00BFA8490024014805F0EC
:1049700049BC00BFA8490024014805F043BC00BF62
:10498000A84900248378022B30B504468FB037D075
:10499000032B33D0012B31D000230A93E378012B72
:1049A0002AD0022B28D000230B93002320460C93FF
:1049B00003F0A0F80546204603F0A4F823780990F8
:1049C000082B13D8DFE803F01F3245586B7E91A403
:1049D0000500594BD3F8E02042F48072C3F8E02080
:1049E000D3F8E03003F480730893089B09A92846A4
:1049F00004F048FA0FB030BD0B93D6E70A93CDE729
:104A000011230A93CAE74C4B09A92846D3F8E020A2
:104A100042F00102C3F8E020D3F8E03003F00103D4
:104A20000093009B04F02EFA0FB030BD424B09A951
:104A30002846D3F8E02042F00202C3F8E020D3F881
:104A4000E03003F002030193019B04F01BFA0FB066
:104A500030BD394B09A92846D3F8E02042F00402C2
:104A6000C3F8E020D3F8E03003F004030293029B84
:104A700004F008FA0FB030BD2F4B09A92846D3F82F
:104A8000E02042F00802C3F8E020D3F8E03003F061
:104A900008030393039B04F0F5F90FB030BD264BD8
:104AA00009A92846D3F8E02042F01002C3F8E0201C
:104AB000D3F8E03003F010030493049B04F0E2F910
:104AC0000FB030BD1C4B09A92846D3F8E02042F0B6
:104AD0002002C3F8E020D3F8E03003F02003059370
:104AE000059B04F0CFF90FB030BD134B09A9284640
:104AF000D3F8E02042F04002C3F8E020D3F8E030E1
:104B000003F040030693069B04F0BCF90FB030BDE0
:104B1000094B09A92846D3F8E02042F08002C3F8E7
:104B2000E020D3F8E03003F080030793079B04F004
:104B3000A9F90FB030BD00BF0044025838B5054692
:104B400002F0D8FF0446284602F0DCFF014620466A
:104B5000BDE8384004F09EBB70B506460D4602F035
:104B6000C9FF0446304602F0CDFF2A1E014620460A
:104B700018BF0122BDE8704004F092BB002312224E
:104B800070B586B0CDE9022304930368032B01D8E6
:104B900004230593061D841D304602F0ABFF054635
:104BA000304602F0AFFF034601A92846019304F006
:104BB00069F9204602F09EFF034620461C4602F09B
:104BC000A1FF01A903462046019304F05BF906B05A
:104BD00070BD00BF634A0368934210B58CB028D003
:104BE000614A934258D0614A934200F09480604AEF
:104BF000934201D00CB010BD5E4C5F48D4F8E03059
:104C000043F00203C4F8E030D4F8E03003F00203CC
:104C10000A930A9BFFF7B2FFD4F8F43043F0800305
:104C2000C4F8F430D4F8F43003F080030B930B9BFA
:104C3000E0E7504C5148D4F8E03043F00203C4F8A8
:104C4000E030D4F8E03003F002030193019BFFF75A
:104C500095FFD4F8E83000221F2043F400131146DA
:104C6000C4F8E830D4F8E83003F400130293029B50
:104C7000D4F8D83043F00103C4F8D830D4F8D83091
:104C800003F001030393039B03F080F81F200CB093
:104C9000BDE8104003F0B8B8364C3948D4F8E030DD
:104CA00043F08003C4F8E030D4F8E03003F0800330
:104CB0000493049BD4F8E03043F00203C4F8E030DE
:104CC000D4F8E03003F002030593059BFFF756FF8D
:104CD000D4F8E8300022212043F480031146C4F8C0
:104CE000E830D4F8E83003F480030693069BD4F848
:104CF000D83043F00103C4F8D830D4F8D83003F0EA
:104D000001030793079B03F041F821200CB0BDE895
:104D1000104003F079B81B48FFF730FF154B002215
:104D20004820D3F8E840114644F40004C3F8E840B2
:104D3000D3F8E84004F400040894089CD3F8D84061
:104D400044F00104C3F8D840D3F8D83003F001038D
:104D50000993099B03F01AF848200CB0BDE81040F5
:104D600003F052B80054004000580040005C00407E
:104D7000001C005800440258280E0024A00B0024F8
:104D8000780C0024500D00242DE9F0431A4B87B015
:104D900000254FF010099E46EC46184BFF22E046D6
:104DA00067461A700EF118060EF13004CDE9005571
:104DB000CDE90255ADF80090BCE80F00CDE90455EF
:104DC000AEE80F009CE803000095ADF800908EE877
:104DD0000300B8E80F000FC69CE803000095ADF88B
:104DE000009086E803000FCF0FC49CE8030084E81E
:104DF000030007B0BDE8F083040000249D0B0024ED
:104E000010B5EFF3108472B6084B1A78120602D56B
:104E100004B962B610BD1B78D82205485BB202FB0C
:104E20000300143003F0DCFCF2E700BF9D0B00240C
:104E3000A00B0024014805F0CBB800BF2C0C0024C7
:104E4000014805F0C5B800BF040D0024014805F075
:104E5000BFB800BFDC0D00242DE9F0430F68D82453
:104E60003F4D85B007FB04F4032F05EB04030360FB
:104E700040DCCB680E46012B3CD84DD04FF0D80813
:104E8000B646DFF8FC9008FB0758BEE80F00C446A2
:104E9000ACE80F00DEF800300DF1100ECCF8003059
:104EA000D8F808C099E80F000EE90F000EEB870351
:104EB000BCF1010F53F8103CC8F88C3031D0BCF174
:104EC000020F42D0BCF1000F35D0317C8C34D82396
:104ED000002201202C4403FB07534900C3E92602AA
:104EE000C3F894102046C3E92822C3E92A2204F01B
:104EF00061FE18B1012005B0BDE8F08301462046EF
:104F000005F072F80028F5D10146204605F096F824
:104F1000003818BF0120EEE70B7C103B672BADD9A2
:104F2000E8E702F0C9F80F4B98420CBF0E4B0F4B4D
:104F3000C8F89030C9E702F0BFF80A4B98420CBF9E
:104F40000B4B0C4BC8F89030BFE702F0B5F8054B9F
:104F500098420CBF084B094BC8F89030B5E700BF2A
:104F6000A00B0024000E27072D0FB0303211D020E7
:104F70005F4390608A62E030200BA0101A09801015
:104F8000F44301082DE9F041D0F8008082B00D46CD
:104F900017461E4608F18C04204605F021F820280B
:104FA000FAD1D8F80C3073B96D002046089C33460E
:104FB0003A46A9B2009404F053FE003818BF01200D
:104FC00002B0BDE8F081089B32463946204604F025
:104FD0001BFFF2E7044B10221A7483F8E82083F8D1
:104FE000C02183F898227047A00B002430B500231D
:104FF00095B04FF48071062204460B9306921393EA
:10500000CDE90C13CDE90E33CDE9113302F056F89A
:1050100007282BD004F1100541F2883206A9284652
:1050200005F05EFF28B10123184684F85C3015B006
:1050300030BD0222022306A92846CDE90023102212
:105040000123CDE9022300224FF48003CDE904239C
:1050500005224FF0807306926A460F9341F288331F
:1050600006F0AAF80028DED115B030BD03230120D8
:1050700084F85C3015B030BD70B50023A4B04FF09B
:1050800080724FF480750446ADF806300D93CDE97B
:1050900010320122CDE90E53CDE91223CDE91433AC
:1050A000002943D0F02300F1100508AEADF806301A
:1050B000C02341F2883231462846089305F010FF9C
:1050C00028B10123184684F85C3024B070BD41F249
:1050D00088320DF10601284605F06CFF03460028D2
:1050E000EFD105224FF480711E93284616924FF09F
:1050F00080721B9321931F9202AA9FED1F7BCDE923
:105100001C13CDE922338DED027B9FED1D7B41F217
:10511000883316A98DED047B9FED1B7B8DED067BFF
:1051200006F04AF80028CCD124B070BD00F110057B
:1051300008AE612341F2883231462846089305F0D3
:10514000CFFE0028BDD141F288320DF1060128467C
:1051500005F0AEFF0028B4D1BDF80630204623F09C
:10516000780343F04003ADF80630FFF73FFF002817
:105170009ED0A6E7AFF30080000000000100000011
:1051800010000000010000000000000000004000CE
:105190002DE9F04F00234FF4807501264FF0807801
:1051A00004462DED028BABB08DF80730139321939D
:1051B000299314950E96CDF85C80CDE91533CDE991
:1051C0001863CDE91A33CDE92253CDE92433CDE973
:1051D000273306231C9301F071FF072808D004F140
:1051E000100741F288321CA9384605F079FE40B11B
:1051F0000123184684F85C302BB0BDEC028BBDE86F
:10520000F08F4FF0020A4FF0020B4FF0050941F208
:10521000883308AA1CA93846CDF89480CDF8709040
:105220009FED2D8BCDE908AB4FF0000A4FF4800BBA
:105230008DED0A8BCDE90CAB05F0BEFF0028D7D170
:1052400041F2883238460EA905F04AFE0028CFD137
:10525000402341F288320DF1070138468DF80730BE
:1052600005F0A8FE0028C3D141F288330EA902AA96
:105270003846CDF83890CDF85C809FED197B8DEDE8
:10528000048BCDE906AB8DED027B05F095FF03465F
:105290000028ADD1CDF870904FF00109CDF8948081
:1052A0004FF00008219308AA29931CA9384622959B
:1052B000CDE92333CDE9273341F288338DED0A8BD5
:1052C000CDE90CABCDE9088905F076FF002893D035
:1052D000304684F85C608FE7100000000100000099
:1052E00040000000400000002DE9F043624CA3B0F4
:1052F0000D46046001F0E2FE072800F0A98028684E
:1053000023466968AA6807C31E46AB8926F8043B92
:105310003046257B677B05F0C5FDE0B9574B012D75
:105320004FF00108E061236114BF4FF480134FF484
:105330000003C4E9058893FAA3F3B3FA83F34FF4A7
:105340008079013BC4F82490C4E90B003046236205
:1053500005F03CFD38B10122134684F85C20184664
:1053600023B0BDE8F08366230B90139041F288329E
:1053700006A90693CDE90C90CDE90E00CDE9110008
:10538000304605F0ADFD0028E5D1992341F2883281
:1053900006A93046069305F0A3FD0028DBD10523BE
:1053A0001C9019906A4614934FF08073219014A9B1
:1053B0001D9341F288339FED2A7BCDE91A90CDE908
:1053C0001F008DED007B9FED287B30468DED027B2D
:1053D0009FED277B8DED047B05F0EEFE0028BAD112
:1053E00029462046FFF748FE0028B4D12046FFF7A3
:1053F000CFFE03460028AED1002FB0D1189330461F
:105400000027002606AA14A9CDF86890CDE91F331D
:10541000EB2314934FF440631B934FF40053179303
:105420004FF440431C93A0231693062319934FF087
:10543000805321934FF04073CDE906671D9305F02B
:1054400033FF034600288AD0434684F85C8086E711
:1054500001230322184684F85C2023B0BDE8F083C2
:10546000000000000100000010000000010000002A
:105470000000000000004000000F00240050005217
:105480002DE9F04F8FB0414B0024026800AF9A42E3
:105490007C63C7E90944C7E90B4403D03C37BD46E8
:1054A000BDE8F08F3A4B40F609213A48EB46D3F875
:1054B000D42007F11C0607F1220A4FF0020942F43A
:1054C00080424FF00308C3F8D420D3F8D42002F46C
:1054D0008042BA60BA68D3F8E02042F04002C3F8D4
:1054E000E020D3F8E02002F04002FA60FA68D3F836
:1054F000E02042F02002C3F8E020D3F8E02002F0E0
:1055000020023A613A69D3F8E02042F01002C3F871
:10551000E020D3F8E02002F010027A617A69D3F833
:10552000E02042F00202C3F8E020D3F8E030F86156
:1055300003F002033984BB61174B7B60BB697B6856
:1055400053F8040F7B6002F0D5FA7B6805461868B3
:1055500002F0D8FA16F8013B786207F124012846D8
:10556000C7F830807B63C7E90A9403F08BFC56458B
:10557000E5D100225C20114602F008FC5C2002F01C
:1055800043FC3C37DD46BD46BDE8F08F005000527D
:10559000004402580A0A09095C0F0024114B0268F2
:1055A0009A4200D07047104A70B5D2F8D4300F4CF0
:1055B00023F4804304F11806C2F8D43054F8040FE1
:1055C00002F098FA0546206802F09CFA0146284647
:1055D00003F098FDB442F1D15C20BDE8704002F0C8
:1055E00021BC00BF00500052004402585C0F002450
:1055F000014805F0E5BE00BF100F0024084B1A1D3E
:10560000981D03F1080110B49C1C9A6603F10A026C
:10561000C3E91834C3E91B015DF8044B5A677047AE
:10562000000F002438B5036871B9026A00F128053B
:1056300000F5AC74012A0CBF002140218BBB1D4B2F
:105640005722C0F858310DE0426A00F1C00500F55C
:10565000E874012A0CBF00214021EBB1164B5A22FD
:10566000C0F8D03100232046C4E901214FF4805214
:105670004FF48061636262614FF48042C4E9033198
:105680004FF48073C4E906234FF40033236202F021
:105690002FFD58B1FFBEFEE7084B5822C0F8D031AD
:1056A000E0E7074B5922C0F85831DBE7C5E9204451
:1056B000A56338BD1000024070000240280002407F
:1056C000580002402DE9F043821D05468BB0031DB2
:1056D00005F10A010830CDE9052305F10C02AB699B
:1056E000CDE907010992002B3DD0EB69B3FA83F8AD
:1056F0004FEA58180123022205AE0AAF4FF00609FF
:105700000393CDE9012356F8044B2B792278934279
:1057100016D02B68F3B1012B02D1F2B10A23049306
:10572000204602F0EFF903462046009302F0E2F92A
:10573000694603F0A7FBBE42E5D10BB0BDE8F0839C
:10574000697963789942E4D1B8F1000FF3D02B68FE
:10575000002BE0D1CDF81090E2E76378022B14BF64
:105760000A230823DBE74FF00108C3E7534A036825
:10577000934230B505468BB055D02032934252D07B
:105780004F4A934204D02032934201D00BB030BD37
:105790004C4C4D48D4F8E03043F00103C4F8E030FD
:1057A000D4F8E03003F001030593059BD4F8E03012
:1057B00043F00803C4F8E030D4F8E03003F0080305
:1057C0000693069BD4F8E03043F04003C4F8E03081
:1057D000D4F8E03003F040030793079BD4F8F0308F
:1057E00043F40003C4F8F030D4F8F03003F40003BD
:1057F0000893089BFFF766FFD4F8D830296843F078
:1058000001032F4A3048C4F8D830891AD4F8D83068
:1058100018BF012103F001030993099B0BB0BDE8F8
:105820003040FFF7FFBE274C2848D4F8E03043F063
:105830000103C4F8E030D4F8E03003F00103009332
:10584000009BD4F8E03043F01003C4F8E030D4F803
:10585000E03003F010030193019BD4F8E03043F0F3
:105860004003C4F8E030D4F8E03003F04003029382
:10587000029BD4F8F03043F48003C4F8F030D4F83D
:10588000F03003F480030393039BFFF71BFFD4F86E
:10589000D830296843F00103084A0C48C4F8D830CE
:1058A000891AD4F8D83018BF012103F001030493FA
:1058B000049B0BB0BDE83040FFF7B4BE0458014074
:1058C000045C014000440258D4110024780F0024E5
:1058D000014802F085BF00BFD0100024014802F04B
:1058E0007FBF00BF48110024014802F079BF00BF0C
:1058F0002C130024014802F073BF00BFA41300243E
:105900001A4A0368934210B40BD02032934208D055
:10591000174A934216D02032934213D05DF8044BBD
:105920007047144B0022D3F85442C3F85822002C7D
:10593000F4D0D3F84802D3E9931223465DF8044B20
:10594000520818470B4B0022D3F8B044C3F8B424D4
:10595000002CE3D0D3F8AC24D3F8A814D3F8A404D3
:10596000520823465DF8044B184700BF0458014015
:10597000045C0140780F0024184A0368934210B475
:105980000BD02032934208D0154A934217D02032D0
:10599000934214D05DF8044B7047124BD3E9942422
:1059A0005208C3F85822002CF4D0D3E992012346C0
:1059B00001EB820100EB82005DF8044B1847094BB4
:1059C000D3F8AC24D3F8B0445208C3F8B424002C64
:1059D000E0D0D3F8A814D3F8A404E8E704580140B1
:1059E000045C0140780F00242DE9F04F0C684FF45F
:1059F0001776754F87B004FB06F6012C07EB060AF5
:105A0000C0F800A000F3A0800D468E464FF00008BD
:105A1000D44669A3D3E9002369A1D1E90001CDE906
:105A2000022306ABCAF8508203EB8403CDE90401DC
:105A300053F810BC53F8083CCAE992880193BEE8B9
:105A40000F00ACE80F00BEE80F00ACE80F00019BB0
:105A50009EE80300CAF828B0CAF8C0308CE80300FA
:105A60002B69042B0CD8DFE803F0737D87910300CA
:105A70004FF41773554A03FB04739A64C3F8E0208C
:105A8000AA692B6A002A43D0002B4FF4177308BF72
:105A9000022203FB047318BF0322DA6201221A6395
:105AA000EA696B6A002A40D1191E4FF4177318BFB8
:105AB000012103FB0473C3E931126B69022B05D882
:105AC000434A12F80380434A52F823904FF4177365
:105AD00006F128004246494603FB0474002338447B
