:020000040800F2
:10000000000002208906000885060008B9410008A2
:100010008506000885060008850600080000000027
:10002000000000000000000000000000850600083D
:100030008506000800000000850600083D41000814
:100040008506000885060008850600088506000864
:100050008506000885060008850600088506000854
:10006000850600088506000885060008A92E0008F8
:10007000B52E000885060008C12E0008CD2E000808
:10008000B53E0008D923000885060008850600084B
:100090008506000885060008850600088506000814
:1000A0008506000885060008850600088506000804
:1000B0008506000885060008850600080D2400084E
:1000C000850600081924000885060008D5ED0008FB
:1000D00085060008A53800084D390008F9390008E0
:1000E0008506000885060008000000008506000857
:1000F000850600088506000885060008E1ED000871
:1001000085060008850600088506000885060008A3
:10011000A53A0008513B000885060008850600083E
:100120008506000885060008850600088506000883
:100130008506000885060008850600088506000873
:1001400000000000000000000000000000000000AF
:10015000850600088506000885060008FD3B0008A6
:1001600025240008850600084D410008714100085B
:1001700085060008954100088506000885060008E8
:100180008506000885060008A93C0008553D0008C2
:100190008506000885060008850600088506000813
:1001A0008506000885060008850600088506000803
:1001B000C92B00088506000885060008850600088A
:1001C0008506000885060008391F0008451F00083D
:1001D00085060008511F00088506000885060008EE
:1001E00085060008850600088506000885060008C3
:1001F00085060008850600088506000885060008B3
:1002000085060008850600088506000885060008A2
:100210008506000885060008850600088506000892
:100220008506000885060008850600080000000015
:100230008506000885060008000000008506000805
:100240008506000885060008850600088506000862
:100250008506000885060008850600088506000852
:100260008506000885060008850600088506000842
:100270008506000885060008013E00080000000011
:1002800085060008850600088506000800000000B5
:080290000000000085060008D3
:1002A00010B5054C237833B9044B13B10448AFF3B0
:1002B00000800123237010BDE00400240000000032
:1002C000E41A010808B5034B1BB103490348AFF317
:1002D000008008BD00000000E4040024E41A0108C6
:1002E00001F0FF01102A2BDB10F0070F08D010F8E7
:1002F000013B013A8B422DD010F0070F42B3F6D1EB
:10030000F0B441EA012141EA014122F007047FF003
:1003100000070023F0E80256083C85EA010586EA5A
:10032000010685FA47F5A3FA87F586FA47F6A5FA96
:1003300087F68EB9EED1F0BC01F0FF0102F00702A2
:1003400032B110F8013B013A83EA010313B1F8D14D
:100350000020704701387047002D06BF354603382E
:10036000073815F0010F07D1013015F4807F02BF67
:10037000013015F4C03F0130F0BC0138704700BFB8
:1003800053B94AB9002908BF00281CBF4FF0FF31FC
:100390004FF0FF3000F074B9ADF1080C6DE904CEF8
:1003A00000F006F8DDF804E0DDE9022304B0704750
:1003B0002DE9F047089D04468E46002B4DD18A4218
:1003C000944669D9B2FA82F252B101FA02F3C2F14B
:1003D000200120FA01F10CFA02FC41EA030E9440DC
:1003E0004FEA1C48210CBEFBF8F61FFA8CF708FBFD
:1003F00016E341EA034306FB07F199420AD91CEBD5
:10040000030306F1FF3080F01F81994240F21C8106
:10041000023E63445B1AA4B2B3FBF8F008FB10334E
:1004200044EA034400FB07F7A7420AD91CEB040483
:1004300000F1FF3380F00A81A74240F20781644453
:10044000023840EA0640E41B00261DB1D4400023D8
:10045000C5E900433146BDE8F0878B4209D9002D3C
:1004600000F0EF800026C5E9000130463146BDE8C6
:10047000F087B3FA83F6002E4AD18B4202D3824230
:1004800000F2F980841A61EB030301209E46002DDF
:10049000E0D0C5E9004EDDE702B9FFDEB2FA82F234
:1004A000002A40F09280A1EB0C014FEA1C471FFA92
:1004B0008CFE0126200CB1FBF7F307FB131140EA79
:1004C00001410EFB03F0884208D91CEB010103F146
:1004D000FF3802D2884200F2CB804346091AA4B208
:1004E000B1FBF7F007FB101144EA01440EFB00FEDC
:1004F000A64508D91CEB040400F1FF3102D2A64541
:1005000000F2BB800846A4EB0E0440EA03409CE7DF
:10051000C6F12007B34022FA07FC4CEA030C20FA8C
:1005200007F401FA06F31C43F9404FEA1C4900FAAC
:1005300006F3B1FBF9F8200C1FFA8CFE09FB181129
:1005400040EA014108FB0EF0884202FA06F20BD99C
:100550001CEB010108F1FF3A80F08880884240F2EC
:100560008580A8F102086144091AA4B2B1FBF9F030
:1005700009FB101144EA014100FB0EFE8E4508D92B
:100580001CEB010100F1FF346CD28E456AD90238B0
:10059000614440EA0840A0FB0294A1EB0E01A14295
:1005A000C846A64656D353D05DB1B3EB080261EB03
:1005B0000E0101FA07F722FA06F3F1401F43C5E9DD
:1005C000007100263146BDE8F087C2F12003D84013
:1005D0000CFA02FC21FA03F3914001434FEA1C4755
:1005E0001FFA8CFEB3FBF7F007FB10360B0C43EA47
:1005F000064300FB0EF69E4204FA02F408D91CEBF7
:10060000030300F1FF382FD29E422DD902386344F4
:100610009B1B89B2B3FBF7F607FB163341EA034194
:1006200006FB0EF38B4208D91CEB010106F1FF38E3
:1006300016D28B4214D9023E6144C91A46EA0046DA
:1006400038E72E46284605E70646E3E61846F8E66C
:100650004B45A9D2B9EB020864EB0C0E0138A3E7B5
:100660004646EAE7204694E74046D1E7D0467BE796
:10067000023B614432E7304609E76444023842E70E
:10068000704700BFFEE700BF0B480C4A904203D002
:10069000121A0B490FF030FE0A480B4A904203D061
:1006A000121A00210FF036FE03F036FF0FF0F8FDAE
:1006B00000F024F8FEE700BF00000024E00400245E
:1006C000141B0108E0040024D85D0024704700BF1B
:1006D0009AB10368406803EB820C10B40C68496857
:1006E00053F8042B44F8042B634550F8042B41F8CD
:1006F000042BF5D15DF8044B7047704730B50021ED
:100700008DB02A4800F020F9042128480DF1120587
:1007100000F096F80321254800F076F82449234894
:1007200000F06EF8012001F043FB224801F032FB9B
:100730000122214900230792059102210A924FF4D8
:1007400016521E480693089301930B92099101F0EB
:1007500021FB05A901A803F0B3FB01280CBF184831
:10076000184801F017FB05A901A803F0A9FB1648DA
:1007700001F010FB01A803F02BFC144801F00AFB68
:10078000134802AC01F006FB0A23214601A81A46D1
:1007900003F018FC14F8011B0E4801F0A5FAAC4256
:1007A000F8D10A21014800F027F8E9E7FC04002409
:1007B000D1060008B017010801060107B8170108A3
:1007C000C0170108CC170108DC170108E41701085D
:1007D000EC170108F817010804480023044A0549EA
:1007E0000360436103620FF03FBD00BFFC040024BF
:1007F00000000024CD060008084603F0DFBC00BF5F
:10080000143001F0FFB900BF38B500F114050446FB
:100810002DED028B284601F0B1F9284601F0AAF926
:100820002846B0EE408A01F093F9D0ED007AF8EE58
:10083000677A88EE277ABDEC028B84ED0E7A38BD9C
:1008400038B500F1140504462DED028B284601F061
:1008500083F9284601F08EF92846B0EE408A01F06F
:1008600077F9D0ED007AF8EE677A88EE277ABDEC5A
:10087000028B84ED0E7A38BDF0B5032399B00027C2
:100880000125129306462C4B09A81595CDE90E7348
:1008900040F20453ADF84030284BCDE9135709938B
:1008A00001F05CFB09A801F035FC002835D1244B90
:1008B00004AF04460090CDF8423010233946049529
:1008C0008DF820301F4BCDE91650CDE90650684613
:1008D000059301F0ADFD0823009A01A909A8ADF820
:1008E00004508DF8064009940295039300F0E4F853
:1008F00000230EA938463024049302F061FB032242
:100900004FF07E5309A906F114000B93CDE909427B
:10091000049A01F0EBF819B0F0BD40F60132084B33
:10092000169704AFADF824200998CDF842301795FA
:1009300000F082F8DCE700BF0402040403030001B6
:10094000040604030704010B2DE9F04304462DEDD2
:10095000028B83B0002948D0012140F2011200230C
:100960000091ADF804208DF80630304A0126304B56
:10097000271D304904F12908626040F20272A36029
:1009800040F60663E16004F125092682A4F82520DB
:1009900084F82760A4F8293084F82B6003F072FDF6
:1009A0006946054648B304F130008DF8066003F04F
:1009B000D1FC072D34D104F114052046FFF75CFF6C
:1009C000284601F0D7F82846B0EE408A01F0C0F87A
:1009D000D0ED007AF8EE677A88EE277A84ED0E7A09
:1009E00003B0BDEC028BBDE8F08340F2011300912F
:1009F0008DF80610ADF80430B7E704F1300003F0CD
:100A0000A9FC3946204601F05BFF484601F0A6FAF2
:100A1000404601F0A3FA04F1120000F077F9CAE7AA
:100A20003946204601F04CFFC5E700BF050805091F
:100A300005070506050A060610B584B0034601241D
:100A4000ADF8040003A8ADF80C30ADF80E4001F08D
:100A500085FA214603A801F06BFB204603F0AEFBAC
:100A6000002103A801F064FB204603F0A7FB214608
:100A700003A801F05DFB04B010BD00BF10B5C2F3C8
:100A8000002384B00C46017C8DF80D2043EA44021B
:100A9000FA2402238DF80C2003AA009401F05EFDD5
:100AA00018B10124204604B010BD04460A2003F00A
:100AB00085FB204604B010BD034670B543F8042BF7
:100AC000044684B007C983E80700A37983B91A21D3
:100AD0000B461E22FA2523742046ADF80C20022373
:100AE00003AA009501F03AFD28B1012004B070BDC1
:100AF0001B210B46EDE70A2003F060FB4FF4B852D0
:100B000000950223ADF80C20204603AA217C01F0B9
:100B100025FD0028E9D10A2003F050FB41F20272C2
:100B200000950223ADF80C20204603AA217C01F099
:100B300015FD0028D9D10A2003F040FB04220095BE
:100B40000223ADF80C20204603AA217C01F006FD0B
:100B50000028CAD10A2003F031FB062200950223A7
:100B6000ADF80C20204603AA217C01F0F7FC0028F8
:100B7000BBD10A2003F022FB41F208220095022398
:100B8000ADF80C20204603AA217C01F0E7FC0028E8
:100B9000ABD10A20064603F011FB0095022303AAFD
:100BA000217C2046ADF80C6001F0D8FC00289CD1D7
:100BB000304603F003FB009522790C232046002ADF
:100BC0008DF80C3003AA4FF0020314BF62214221BA
:100BD0008DF80D10217C01F0C1FC002885D1304634
:100BE00003F0ECFA2279D4E902310B43DBB20AB903
:100BF00043F0400362790AB143F020030E22FA2544
:100C00008DF80D302046009502238DF80C2003AAA4
:100C1000217C01F0A3FC00287FF467AF0A2003F0D9
:100C2000CDFA102200950223ADF80C20204603AA2D
:100C3000217C01F093FC00287FF457AF0A2003F0D9
:100C4000BDFA122100950223ADF80C1003AA217CF5
:100C5000204601F083FC00287FF447AF0A2003F010
:100C6000ADFA012209212046FFF708FF003818BF1E
:100C700001203BE7F0B5102387B0234C012200256B
:100C80000126002702A920460195CDE902234FF451
:100C90008052CDE904670AF0A5F8642004F030FA28
:100CA00002A94FF480522046CDE90467022610279E
:100CB000CDE902670AF096F80322102302A9204624
:100CC000CDE9022300230422CDE904234FF480520E
:100CD0000AF088F840F23223042202A9019310237B
:100CE0002046CDE90223019A012305924FF4805258
:100CF00004930AF077F840F6060120460AF092F8CD
:100D0000284607B0F0BD00BF400500241C4B002260
:100D10001C494FF0400C30B5054689B0022059609F
:100D200007219A601A620124DA620A224FF4006EE7
:100D3000DC6006922022CDE9000104200821CDE9E3
:100D4000020103201021CDE9040108206946C3E90E
:100D500004024FF4C072181DC3E906C24FF480525A
:100D6000C3E909E20AF014F838B92846FFF782FF10
:100D7000003818BF012009B030BD204609B030BD91
:100D80003C05002440410052614A0021D0B513685F
:100D90008EB00A91002B40F0B9805E4B01214FF6D6
:100DA00083700C2411600221D3F8D420002603277D
:100DB00042F48052C3F8D420D3F8D42002F48052F5
:100DC0000092009AD3F8E02042F01002C3F8E0202D
:100DD000D3F8E02002F010020192019AD3F8E0204B
:100DE00042F04002C3F8E020D3F8E02002F04002D5
:100DF0000292029AD3F8E02042F00802C3F8E02001
:100E0000D3F8E02002F008020392039AD3F8E0201E
:100E100042F48072C3F8E020D3F8E02002F480723C
:100E20000492049AD3F8E02042F08002C3F8E02054
:100E3000D3F8E02002F080020592059AD3F8E02072
:100E400042F02002C3F8E020D3F8E02002F02002B4
:100E50000692069AD3F8E02042F00402C3F8E0209C
:100E6000D3F8E0300C9403F0040307930323079AAC
:100E70000B93CDE9080108A9274805F0E7F948F2E6
:100E80003712022308A925480C94CDE90823CDE99F
:100E90000A6705F0DBF94CF20372022308A9204827
:100EA0000C94CDE90823CDE90A6705F0CFF940F2AB
:100EB000FF62022308A91B480C94CDE90823CDE961
:100EC0000A6705F0C3F94FF60C72022308A9164809
:100ED0000C94CDE90823CDE90A6705F0B7F94FF680
:100EE0003F02022308A911480C94CDE90823CDE95B
:100EF0000A6705F0ABF92022022308A90A480C94DE
:100F0000CDE90A67CDE9082305F0A0F90EB0D0BD00
:100F100038050024004402580010025800180258F6
:100F2000000C025800200258001C025800140258FD
:100F30002DE9F04FDFF8108406460D46144608F1FF
:100F400014002DED028B89B000AF02F031F9D8F812
:100F5000143073B3D8F81830D8F80490002B4369D4
:100F60000BBF4FF0080A4FF0100A4FF0020B4FF082
:100F7000040BB9F1000F2AD0A200EA46012B02F1BE
:100F8000070222F00702ADEB020D6846ADEB020D41
:100F9000694600F03F81022B00F0D680002B6FD015
:100FA0002246C847D5462437BD46BDEC028BBDE876
:100FB000F08FD8F81830002BF5D0D8F804904FF007
:100FC000080A4FF0020B4369B9F1000FD4D1FB615D
:100FD000D8F80030BB61002BE5D0D54802F05AF9B3
:100FE0006B46BBF1020F786108EE103AFB6900F026
:100FF00083816A465146A2EBC40295466200EA46E6
:10100000B2FBFBF2AAEBC40085460AEB8200EE4677
:10101000F861ADEB010DF8690EEB820CC7F810C05A
:10102000EC46ADEB010D00EB8201CCF80400CCF8EE
:10103000081001EB82013869E946CCF80C1000EB8E
:101040008201CCF800A001EB8202C9E900E0C9E905
:101050000212012B00F06483022B00F06C82002B43
:1010600000F08081620849466046BB69984718EEE7
:10107000103A24379D46BD46BDEC028BBDE8F08F8B
:10108000002C8DD01A46D8ED0B6A9FEDB27A8446BB
:10109000331D36F922E00CF1080C07EE90EA33F923
:1010A00022E00232F8EEE77A944267EE877A67EE42
:1010B000A67A4CED027A07EE90EAF8EEE77A67EE50
:1010C000877A67EEA67A4CED017AE2D8F96122467A
:1010D000C847984ED8ED046A0020F9692B1D9FED92
:1010E0009E7A9FED9E6ADFED9E5A22E0F4EEC67A6C
:1010F000F1EE10FAC0F2C88447F6FE72D1ED017A23
:1011000045F8202066EEA77AF4EEC77AF1EE10FAE1
:1011100040F2F080F4EEC67AF1EE10FAC0F2D58417
:1011200047F6FE7243F820200230083184427FF6F1
:1011300039AFD1ED007A66EEA77AF4EEC77AF1EE18
:1011400010FAD3D83246D9E7002C3FF429AFD8EDB6
:101150000B6A84469FED787A0022331D8E4656F83E
:1011600022100CF1080C07EE901A53F822100232EC
:10117000F8EEE77A944267EE877A67EEA67A4CED4E
:10118000027A07EE901AF8EEE77A67EE877A67EE52
:10119000A67A4CED017AE2D871462246C7F81CE0E7
:1011A000C847664ED8ED046A0020F9692B1D9FEDF3
:1011B0006A7A9FED6A6ADFF894C120E0F4EEC67A9D
:1011C000F1EE10FAC0F279843246D1ED017A45F899
:1011D000202066EEA77AF4EEC77AF1EE10FA40F21C
:1011E0008780F4EEC67AF1EE10FAC0F25E843246E1
:1011F00043F820200230083184427FF6D3AED1ED8F
:10120000007A66EEA77AF4EEC77AF1EE10FAD5D836
:101210006246DAE7002C3FF4C3AED8ED0B6A86468F
:101220009FED477A4FF0000C331D56F82C200EF13D
:10123000080E82F40002A2F5000207EE902A53F88D
:101240002C200CF1020CF8EEE77A82F400026445DF
:10125000A2F5000267EE877A67EEA67A4EED027A73
:1012600007EE902AF8EEE77A67EE877A67EEA67ABD
:101270004EED017AD9D8F9612246C847314ED8EDF2
:10128000046A0020F9692B1D9FED337A9FED336AC4
:10129000DFF8BCC01FE0F4EEC67AF1EE10FAC0F23F
:1012A000FC833246D1ED017A45F8202066EEA77A1C
:1012B000F4EEC77AF1EE10FA18D9F4EEC67AF1EE30
:1012C00010FAC0F2DA83324643F8202002300831A7
:1012D00084427FF667AED1ED007A66EEA77AF4EE2F
:1012E000C77AF1EE10FAD6D86246DBE76246EBE742
:1012F00062467DE7324615E7A100D646620807310F
:1013000021F00701ADEB010DEA46ADEB010D694699
:10131000ADEB0E0D0AEB8200EC46ADEB0E0D01EBD2
:101320008202F861E946CCE900A0C9E9001290E622
:101330008C0500240280FFFF000000300082FF7F48
:101340000000003482FF7F0074050024007E0080CE
:101350007E0080FF0000003804FF7FBF04FF7F3F56
:1013600000FEFF46002C00F0C982BBF1020FD8F846
:10137000202000F0FA827969C7F8049002EB810E10
:101380005FED0C5A8A00DCF808100EF104007A6157
:101390001A46DCF80C303B61331DD7F810903D61E4
:1013A000FD69C7E902CB8C46834636F92210D8ED99
:1013B0000B7A06EE101A33F9221006EE901A3EF957
:1013C0002210B8EEC66A07EE101AF8EEE66A3BF98C
:1013D0002210B8EEC77A26EE256A66EEA56A27EED9
:1013E000257A26EE276A66EEA76A27EE277A07EEA9
:1013F000901A51080232F8EEE77A0AEB8100944223
:1014000080ED006A05EB810067EEA57AC0ED006A09
:101410000CEB810009EB810180ED007A98ED0B7AED
:1014200067EE877AC1ED007ABFD8D7F804903D699E
:10143000D7E902CB60466208BB6949469847D8F8AD
:1014400028307A69D8ED046A1A441FED3D7A1FED01
:101450003D6A2B1D904602F1040A5FED3F5A0022BF
:10146000A84ED9E900EC51E0F4EEC67AF1EE10FA9C
:10147000C0F2C78247F6FE7045F822000CEB01006F
:10148000D0ED007A66EEA77AF4EEC77AF1EE10FAA4
:101490004BD9F4EEC67AF1EE10FAC0F2BA8247F6F2
:1014A000FE70BBF1020F43F822002BD0D9F80800E0
:1014B0000844D0ED007A66EEA77AF4EEC77AF1EE32
:1014C00010FA36D9F4EEC67AF1EE10FAC0F2CD82F7
:1014D00047F6FE7048F82200D9F80C000144D1ED1F
:1014E000007A66EEA77AF4EEC77AF1EE10FA1ED90A
:1014F000F4EEC67AF1EE10FAC0F2AF8247F6FE7152
:101500004AF82210023294427FF6B1AD51080EEB38
:1015100081008900D0ED007A66EEA77AF4EEC77AF2
:10152000F1EE10FAA0D83046A6E73046B9E73146CA
:10153000E6E73046CEE7002C00F0E081BBF1020F79
:10154000D8F8203000F0E1817A69DCF8081003EB6C
:10155000820EC7F804909300DFED6B5A0EF1040081
:1015600000227B61DCF80C303B61331DD7F8109012
:101570003D61FD69C7E902CB8C46834656F82210CF
:10158000D8ED0B7A07EE101A53F82210B8EEC76A9E
:1015900007EE101A5EF82210F8EEC76A07EE101A6E
:1015A00026EE256A5BF82210B8EEC77A66EEA56AC9
:1015B00026EE276A27EE257A66EEA76A27EE277AB7
:1015C00007EE901A51080232F8EEE77A0AEB810032
:1015D000944280ED006A05EB810067EEA57AC0EDCC
:1015E000006A0CEB810009EB810180ED007A98ED37
:1015F0000B7A67EE877AC1ED007ABFD8D7F80490EE
:101600003D69D7E902CB60466208BB694946984705
:10161000D8F828307A69D8ED046A1A449FED3E7AEA
:101620009FED3E6A131D9246DFF8E4C00022FB6185
:101630002B1D364ED9E9008E4EE0F4EEC67AF1EE5F
:1016400010FAC0F2FC81304645F822000EEB010092
:10165000D0ED007A66EEA77AF4EEC77AF1EE10FAD2
:1016600049D9F4EEC67AF1EE10FAC0F2EF813046B5
:10167000BBF1020F43F822002AD0D9F80800084431
:10168000D0ED007A66EEA77AF4EEC77AF1EE10FAA2
:1016900035D9F4EEC67AF1EE10FAC0F2C9813046BF
:1016A0004AF82200D9F80C000144D1ED007A66EE28
:1016B000A77AF4EEC77AF1EE10FA1ED9F4EEC67AE4
:1016C000F1EE10FAC0F2AD813146F86940F822100F
:1016D000023294427FF6CBAC510808EB81008900BE
:1016E000D0ED007A66EEA77AF4EEC77AF1EE10FA42
:1016F000A3D86046A8E76046BAE76146E5E76046DA
:10170000CEE700BF0280FFFF000000300082FF7FB5
:10171000007E00800000003404FF7FBF04FF7F3F95
:10172000002C00F0EB807A690021D8F82030C7F84F
:10173000109003EB820ED7F81C909300FD610EF120
:1017400004021FED0C6A7B61331D154656F82120FB
:101750004808D8ED0B6ABBF1020F82F40002A2F533
:10176000000207EE902A53F8212082F40002B8EE1E
:10177000E77AA2F5000227EE067A07EE902A0AEB36
:101780008002F8EEE77A27EE267A67EE867A82ED17
:10179000007A09EB80024FEA800067EEA67AC2ED7C
:1017A000007A27D05EF8212082F40002A2F5000220
:1017B00007EE902A55F8212082F40002B8EEE77A6D
:1017C000A2F5000227EE067A07EE902ADCF8082040
:1017D000F8EEE77A024427EE267A67EE867A82ED03
:1017E000007A98ED0B7ADCF80C2067EE877A0244D9
:1017F000C2ED007A02318C42A8D8D7F8109060462A
:101800006208BB694946FD699847D8F828307A696B
:10181000D8ED046A1A441FED407A1FED406A131D8B
:101820009246DFF8C4C20022FB612B1DAB4ED9E902
:10183000008E4EE0F4EEC67AF1EE10FAC0F2C580EA
:10184000304645F822000EEB0100D0ED007A66EE3E
:10185000A77AF4EEC77AF1EE10FA49D9F4EEC67A17
:10186000F1EE10FAC0F2BF803046BBF1020F43F830
:1018700022002AD0D9F808000844D0ED007A66EE9C
:10188000A77AF4EEC77AF1EE10FA35D9F4EEC67AFB
:10189000F1EE10FAC0F2AE8030464AF82200D9F8D4
:1018A0000C000144D1ED007A66EEA77AF4EEC77A17
:1018B000F1EE10FA1ED9F4EEC67AF1EE10FAC0F28B
:1018C0008B803146F86940F82210023294427FF64C
:1018D000CEAB510808EB81008900D0ED007A66EEAE
:1018E000A77AF4EEC77AF1EE10FAA3D86046A8E71B
:1018F0006046BAE76146E5E76046CEE722464946DC
:101900006046BB699847FFF7B2BBC7F810B000222A
:1019100098ED0B6A331DDFED726AD7F81CB0786959
:1019200056F8221007EE901A53F82210B8EEE77A14
:1019300007EE901A51080232F8EEE77A27EE267A7F
:101940000AEB810E94420BEB810167EEA67A27EE3B
:10195000067A67EE867A8EED007AC1ED007ADFD8DE
:101960008300D7F810B07B614DE61A46C7F810B077
:1019700098ED0B6A331DDFED5B6AD7F81CB0786910
:1019800036F9221007EE101A33F9221007EE901ADA
:10199000B8EEC77A51080232F8EEE77A27EE267AD7
:1019A0000AEB810E94420BEB810167EEA67A27EEDB
:1019B000067A67EE867A8EED007AC1ED007ADFD87E
:1019C0008300D7F810B07B6134E5F0EE675AFEEE85
:1019D000E45A15EE900A34E7F0EE675AFEEEE45A48
:1019E00015EE901A6EE7F0EE675AFEEEE45A15EE29
:1019F000900A3AE7F0EE675AFEEEE45A15EE900AC6
:101A00004BE767EEA57AFDEEE77A17EE900A00B293
:101A100032E567EEA57AFDEEE77A17EE900A00B29E
:101A20003FE5F0EE675AFEEEE05A15EE901A4CE6EE
:101A3000F0EE675AFEEEE05A15EE900A30E6F0EE50
:101A4000675AFEEEE05A15EE900AFDE5F0EE675A91
:101A5000FEEEE05A15EE900A0AE667EEA57AFDEE74
:101A6000E77A17EE901A09B24AE567EEA57AFDEE1D
:101A7000E77A17EE900A00B22CE5F0EE675AFEEE18
:101A8000E45A15EE902A1FE467EEA57AFDEEE77A98
:101A900017EE902A12B2FFF731BBF0EE675AFEEE56
:101AA000E45A15EE902AFFF7FDBBF0EE675AFEEE02
:101AB000E05A15EE902AFFF79BBBF0EE675AFEEE58
:101AC000E05A15EE902AFFF780BB67EEA57AFDEE8F
:101AD000E77A17EE902A12B2FFF724BB82FF7F004D
:101AE00000000030000000387E0080FF30B5154C4B
:101AF000154685B0046004F1080C01AB07C98CE8F9
:101B00000700D4ED047AF5EEC07A83E80700F1EE21
:101B100010FA14DDF7EE006A86EEA77A84ED0B7AF0
:101B20006DB1204640F8145F01F042FB064903699D
:101B30000020064AE1616262E36005B030BD012029
:101B400005B030BD740500240020003000000030D6
:101B500000680830704700BFB1F5807F03680A460F
:101B600028BF4FF48072B1F5807F9A6094BF002047
:101B7000012070470068143001F07ABB70B504682A
:101B80008AB06369E160CBB104F11405284601F025
:101B90000FFB8446EE46E668BCE80F00AEE80F0097
:101BA000BCE80F00AEE80F009CE803008EE80300DD
:101BB00069462846049601F003FAF8B9A069D8B13D
:101BC00004F11805284601F0F3FA8446EE46E4686D
:101BD000BCE80F00AEE80F00BCE80F00AEE80F0055
:101BE0009CE803008EE8030069462846049401F04F
:101BF000E7F9003818BF01200AB070BD01200AB013
:101C000070BD00BF30B5046883B00D46A3694BB109
:101C1000A3680020A26A216A9B00009004F11800CA
:101C200001F0C8FAA3680748626A9B00E169009066
:101C300004F1140001F0BEFA0020C4E9005003B022
:101C400030BD00BF310F0008024B0022C3E905225E
:101C5000704700BF74050024704700BFF8B5134FEC
:101C60003C687F2C07D98023114A42F224411C464C
:101C70003B60A2F87E100F4D2B68012B0AD90C4E49
:101C80000D4D22463146284600F04CF90028F8D187
:101C90003860F8BD22460649074800F043F900289D
:101CA000F7D12B68386001332B60F8BDA8050024FC
:101CB000AC050024A40500242C06002410B5084C13
:101CC00002460B46074821680844C1F180010EF026
:101CD00089FC236818442060FFF7C0FF10BD00BFD7
:101CE000A8050024AC0500240FB400B583B004A9F6
:101CF00051F8040B0191FFF7E1FF03B05DF804EB2D
:101D000004B0704730B4154C2168F1B14B1E144D2E
:101D1000E81810F801298C4619460A2A01D00D2A24
:101D200002D14BB1013BF4E70CF102037F2B10D938
:101D30008023236030BC70470122022323600D20E2
:101D40000A236854AB5430BC704701220223044D6F
:101D5000F4E70CF101026146F0E700BFA80500249A
:101D6000AC05002410B5094C02460B460848216812
:101D70000844C1F180010EF035FC2368184420604E
:101D8000FFF7C0FFFFF76AFF10BD00BFA8050024E2
:101D9000AC0500240FB400B583B004A951F8040BBE
:101DA0000191FFF7DFFF03B05DF804EB04B070476B
:101DB00010B504460021084800F02EF8002C074B0F
:101DC00014BF0222002206481A60FFF7E3FF05480D
:101DD000FFF7E0FF10BD00BF2C060024A40500247F
:101DE000FC1701080C180108064A0749074808B5FE
:101DF0000EF03AFA034A04490548BDE808400EF0DF
:101E000033BA00BF00000024591C00082C0600242F
:101E100030060024704700BF012910B506D0022902
:101E200015D051B1BDE8104006F0F2B80A4634486A
:101E300034490BF0C5FFE8B1FEE7334B0A46334C9B
:101E4000334934481C600BF0BBFF68B1FEE7012248
:101E50002C492B480BF0B4FF00B1FEE72E4928486F
:101E60000BF0D0FFC0B1FEE72B492A480BF0CAFFA8
:101E700060B1FEE7284922480BF0C4FF00B1FEE73D
:101E800026491F480BF04CFF08B3FEE724492148C0
:101E90000BF046FFA8B1FEE7204919480BF040FFC0
:101EA00000B1FEE716480BF0C3FF024640B9164BDF
:101EB000164C174917481C600BF082FF68B1FEE70B
:101EC000FEE714480BF0B4FF0028ABD0FEE70C4847
:101ED0000BF0AEFF0028A5D0FEE70F490D480BF030
:101EE00091FF00B1FEE70E490A480BF019FF00B15F
:101EF000FEE708480BF09CFF002893D0FEE700BFE8
:101F0000D0080024940100246C0B0024151E000846
:101F10007801002434060024FC0100245801002428
:101F200048010024084691B208B502F0E5FB0038EC
:101F300018BF012008BD00BF014805F047BB00BF26
:101F400060480024014805F041BB00BF6048002400
:101F5000014805F03BBB00BF604800248378022B9A
:101F600030B504468FB037D0032B33D0012B31D09E
:101F700000230A93E378012B2AD0022B28D00023D8
:101F80000B93002320460C9302F098FF0546204651
:101F900002F09CFF23780990082B13D8DFE803F0A8
:101FA0001F3245586B7E91A40500594BD3F8E020B1
:101FB00042F48072C3F8E020D3F8E03003F4807379
:101FC0000893089B09A9284604F040F90FB030BDDA
:101FD0000B93D6E70A93CDE711230A93CAE74C4B3C
:101FE00009A92846D3F8E02042F00102C3F8E02016
:101FF000D3F8E03003F001030093009B04F026F9CE
:102000000FB030BD424B09A92846D3F8E02042F07A
:102010000202C3F8E020D3F8E03003F0020301939A
:10202000019B04F013F90FB030BD394B09A92846C4
:10203000D3F8E02042F00402C3F8E020D3F8E03007
:1020400003F004030293029B04F000F90FB030BDCB
:102050002F4B09A92846D3F8E02042F00802C3F824
:10206000E020D3F8E03003F008030393039B04F06F
:10207000EDF80FB030BD264B09A92846D3F8E02073
:1020800042F01002C3F8E020D3F8E03003F0100370
:102090000493049B04F0DAF80FB030BD1C4B09A97F
:1020A0002846D3F8E02042F02002C3F8E020D3F81D
:1020B000E03003F020030593059B04F0C7F80FB050
:1020C00030BD134B09A92846D3F8E02042F0400266
:1020D000C3F8E020D3F8E03003F040030693069BFA
:1020E00004F0B4F80FB030BD094B09A92846D3F865
:1020F000E02042F08002C3F8E020D3F8E03003F0A3
:1021000080030793079B04F0A1F80FB030BD00BF18
:102110000044025838B5054602F0D0FE0446284671
:1021200002F0D4FE01462046BDE8384004F096BADD
:1021300070B506460D4602F0C1FE0446304602F078
:10214000C5FE2A1E0146204618BF0122BDE8704088
:1021500004F08ABA0023122270B586B0CDE90223BA
:1021600004930368032B01D804230593061D841DE3
:10217000304602F0A3FE0546304602F0A7FE0346B5
:1021800001A92846019304F061F8204602F096FE6A
:10219000034620461C4602F099FE01A9034620464C
:1021A000019304F053F806B070BD00BF634A0368A2
:1021B000934210B58CB028D0614A934258D0614AFE
:1021C000934200F09480604A934201D00CB010BD5D
:1021D0005E4C5F48D4F8E03043F00203C4F8E030CE
:1021E000D4F8E03003F002030A930A9BFFF7B2FF32
:1021F000D4F8F43043F08003C4F8F430D4F8F43069
:1022000003F080030B930B9BE0E7504C5148D4F84C
:10221000E03043F00203C4F8E030D4F8E03003F0DB
:1022200002030193019BFFF795FFD4F8E8300022E9
:102230001F2043F400131146C4F8E830D4F8E83006
:1022400003F400130293029BD4F8D83043F0010347
:10225000C4F8D830D4F8D83003F001030393039BBB
:1022600002F078FF1F200CB0BDE8104002F0B0BFB4
:10227000364C3948D4F8E03043F08003C4F8E030FD
:10228000D4F8E03003F080030493049BD4F8E030EA
:1022900043F00203C4F8E030D4F8E03003F0020366
:1022A0000593059BFFF756FFD4F8E8300022212064
:1022B00043F480031146C4F8E830D4F8E83003F45E
:1022C00080030693069BD4F8D83043F00103C4F88A
:1022D000D830D4F8D83003F001030793079B02F0FD
:1022E00039FF21200CB0BDE8104002F071BF1B483F
:1022F000FFF730FF154B00224820D3F8E840114685
:1023000044F40004C3F8E840D3F8E84004F40004BF
:102310000894089CD3F8D84044F00104C3F8D8408E
:10232000D3F8D83003F001030993099B02F012FFA0
:1023300048200CB0BDE8104002F04ABF00540040F5
:1023400000580040005C0040001C00580044025847
:10235000FC0D0024740B00244C0C0024240D0024DC
:102360002DE9F0431A4B87B000254FF010099E4627
:10237000EC46184BFF22E04667461A700EF118062D
:102380000EF13004CDE90055CDE90255ADF80090CD
:10239000BCE80F00CDE90455AEE80F009CE803004F
:1023A0000095ADF800908EE80300B8E80F000FC666
:1023B0009CE803000095ADF8009086E803000FCF7D
:1023C0000FC49CE8030084E8030007B0BDE8F08375
:1023D00004000024710B002410B5EFF3108472B6D2
:1023E000084B1A78120602D504B962B610BD1B78E4
:1023F000D82205485BB202FB0300143003F0D4FB83
:10240000F2E700BF710B0024740B0024014804F0B4
:10241000C3BF00BF000C0024014804F0BDBF00BFD3
:10242000D80C0024014804F0B7BF00BFB00D002451
:102430002DE9F0430F68D8243F4D85B007FB04F425
:10244000032F05EB0403036040DCCB680E46012B31
:102450003CD84DD04FF0D808B646DFF8FC9008FBCA
:102460000758BEE80F00C446ACE80F00DEF80030A5
:102470000DF1100ECCF80030D8F808C099E80F0024
:102480000EE90F000EEB8703BCF1010F53F8103C6F
:10249000C8F88C3031D0BCF1020F42D0BCF1000F33
:1024A00035D0317C8C34D823002201202C4403FB0E
:1024B00007534900C3E92602C3F894102046C3E934
:1024C0002822C3E92A2204F059FD18B1012005B0E1
:1024D000BDE8F0830146204604F06AFF0028F5D1EC
:1024E0000146204604F08EFF003818BF0120EEE7B9
:1024F0000B7C103B672BADD9E8E701F0C1FF0F4B18
:1025000098420CBF0E4B0F4BC8F89030C9E701F052
:10251000B7FF0A4B98420CBF0B4B0C4BC8F89030DE
:10252000BFE701F0ADFF054B98420CBF084B094BCC
:10253000C8F89030B5E700BF740B0024000E2707E1
:102540002D0FB0303211D0205F4390608A62E030AE
:10255000200BA0101A098010741701082DE9F04112
:10256000D0F8008082B00D4617461E4608F18C0454
:10257000204604F019FF2028FAD1D8F80C3073B99E
:102580006D002046089C33463A46A9B2009404F0F8
:102590004BFD003818BF012002B0BDE8F081089B58
:1025A00032463946204604F013FEF2E7044B10226F
:1025B0001A7483F8E82083F8C02183F898227047C2
:1025C000740B002430B5002395B04FF480710622BF
:1025D00004460B9306921393CDE90C13CDE90E3309
:1025E000CDE9113301F04EFF07282BD004F110057F
:1025F00041F2883206A9284605F056FE28B101238B
:10260000184684F85C3015B030BD0222022306A9BA
:102610002846CDE9002310220123CDE90223002220
:102620004FF48003CDE9042305224FF08073069216
:102630006A460F9341F2883305F0A2FF0028DED1ED
:1026400015B030BD0323012084F85C3015B030BDD7
:1026500070B50023A4B04FF080724FF4807504462B
:10266000ADF806300D93CDE910320122CDE90E53BD
:10267000CDE91223CDE91433002943D0F02300F132
:10268000100508AEADF80630C02341F2883231465D
:102690002846089305F008FE28B10123184684F85F
:1026A0005C3024B070BD41F288320DF1060128463D
:1026B00005F064FE03460028EFD105224FF4807137
:1026C0001E93284616924FF080721B9321931F92FF
:1026D00002AA9FED1F7BCDE91C13CDE922338DEDBE
:1026E000027B9FED1D7B41F2883316A98DED047BA3
:1026F0009FED1B7B8DED067B05F042FF0028CCD1C2
:1027000024B070BD00F1100508AE612341F288329B
:1027100031462846089305F0C7FD0028BDD141F297
:1027200088320DF10601284605F0A6FE0028B4D136
:10273000BDF80630204623F0780343F04003ADF89F
:102740000630FFF73FFF00289ED0A6E7AFF30080DA
:102750000000000001000000100000000100000067
:1027600000000000000040002DE9F04F00234FF46E
:10277000807501264FF0807804462DED028BABB0BA
:102780008DF8073013932193299314950E96CDF865
:102790005C80CDE91533CDE91863CDE91A33CDE975
:1027A0002253CDE92433CDE9273306231C9301F0CE
:1027B00069FE072808D004F1100741F288321CA9ED
:1027C000384605F071FD40B10123184684F85C30AD
:1027D0002BB0BDEC028BBDE8F08F4FF0020A4FF03A
:1027E000020B4FF0050941F2883308AA1CA93846AC
:1027F000CDF89480CDF870909FED2D8BCDE908AB8E
:102800004FF0000A4FF4800B8DED0A8BCDE90CAB35
:1028100005F0B6FE0028D7D141F2883238460EA91D
:1028200005F042FD0028CFD1402341F288320DF15E
:10283000070138468DF8073005F0A0FD0028C3D108
:1028400041F288330EA902AA3846CDF83890CDF867
:102850005C809FED197B8DED048BCDE906AB8DED92
:10286000027B05F08DFE03460028ADD1CDF87090B7
:102870004FF00109CDF894804FF00008219308AA89
:1028800029931CA938462295CDE92333CDE9273376
:1028900041F288338DED0A8BCDE90CABCDE9088987
:1028A00005F06EFE002893D0304684F85C608FE718
:1028B0001000000001000000400000004000000087
:1028C0002DE9F043624CA3B00D46046001F0DAFD3F
:1028D000072800F0A980286823466968AA6807C30A
:1028E0001E46AB8926F8043B3046257B677B05F006
:1028F000BDFCE0B9574B012D4FF00108E0612361A9
:1029000014BF4FF480134FF40003C4E9058893FA11
:10291000A3F3B3FA83F34FF48079013BC4F8249016
:10292000C4E90B003046236205F034FC38B10122C3
:10293000134684F85C20184623B0BDE8F083662374
:102940000B90139041F2883206A90693CDE90C90C2
:10295000CDE90E00CDE91100304605F0A5FC0028B8
:10296000E5D1992341F2883206A93046069305F055
:102970009BFC0028DBD105231C9019906A46149318
:102980004FF08073219014A91D9341F288339FED7D
:102990002A7BCDE91A90CDE91F008DED007B9FEDDC
:1029A000287B30468DED027B9FED277B8DED047BF0
:1029B00005F0E6FD0028BAD129462046FFF748FE7B
:1029C0000028B4D12046FFF7CFFE03460028AED141
:1029D000002FB0D1189330460027002606AA14A96C
:1029E000CDF86890CDE91F33EB2314934FF4406387
:1029F0001B934FF4005317934FF440431C93A023B1
:102A00001693062319934FF0805321934FF0407390
:102A1000CDE906671D9305F02BFE034600288AD0FA
:102A2000434684F85C8086E701230322184684F835
:102A30005C2023B0BDE8F08300000000010000002E
:102A40001000000001000000000000000000400035
:102A5000D40E0024005000522DE9F04F8FB0414BAE
:102A60000024026800AF9A427C63C7E90944C7E9C1
:102A70000B4403D03C37BD46BDE8F08F3A4B40F6DF
:102A800009213A48EB46D3F8D42007F11C0607F198
:102A9000220A4FF0020942F480424FF00308C3F8C3
:102AA000D420D3F8D42002F48042BA60BA68D3F8B4
:102AB000E02042F04002C3F8E020D3F8E02002F02A
:102AC0004002FA60FA68D3F8E02042F02002C3F82E
:102AD000E020D3F8E02002F020023A613A69D3F80E
:102AE000E02042F01002C3F8E020D3F8E02002F02A
:102AF00010027A617A69D3F8E02042F00202C3F84A
:102B0000E020D3F8E030F86103F002033984BB61C0
:102B1000174B7B60BB697B6853F8040F7B6002F046
:102B2000CDF97B680546186802F0D0F916F8013B2C
:102B3000786207F124012846C7F830807B63C7E933
:102B40000A9403F083FB5645E5D100225C20114630
:102B500002F000FB5C2002F03BFB3C37DD46BD464B
:102B6000BDE8F08F00500052004402580A0A0909DB
:102B7000300F0024114B02689A4200D07047104A6F
:102B800070B5D2F8D4300F4C23F4804304F118060A
:102B9000C2F8D43054F8040F02F090F905462068CA
:102BA00002F094F90146284603F090FCB442F1D1BA
:102BB0005C20BDE8704002F019BB00BF005000521D
:102BC00000440258300F0024014805F0DDBD00BF6D
:102BD000E40E0024084B1A1D981D03F1080110B4DF
:102BE0009C1C9A6603F10A02C3E91834C3E91B016D
:102BF0005DF8044B5A677047D40E002438B503685B
:102C000071B9026A00F1280500F5AC74012A0CBF05
:102C1000002140218BBB1D4B5722C0F858310DE0DD
:102C2000426A00F1C00500F5E874012A0CBF0021DA
:102C30004021EBB1164B5A22C0F8D0310023204678
:102C4000C4E901214FF480524FF4806163626261F4
:102C50004FF48042C4E903314FF48073C4E9062382
:102C60004FF40033236202F027FC58B1FFBEFEE7A9
:102C7000084B5822C0F8D031E0E7074B5922C0F882
:102C80005831DBE7C5E92044A56338BD1000024098
:102C90007000024028000240580002402DE9F04335
:102CA000821D05468BB0031D05F10A010830CDE9F0
:102CB000052305F10C02AB69CDE907010992002B50
:102CC0003DD0EB69B3FA83F84FEA5818012302228A
:102CD00005AE0AAF4FF006090393CDE9012356F87C
:102CE000044B2B792278934216D02B68F3B1012B39
:102CF00002D1F2B10A230493204602F0E7F803461A
:102D00002046009302F0DAF8694603F09FFABE42CB
:102D1000E5D10BB0BDE8F083697963789942E4D1DD
:102D2000B8F1000FF3D02B68002BE0D1CDF8109054
:102D3000E2E76378022B14BF0A230823DBE74FF096
:102D40000108C3E7534A0368934230B505468BB088
:102D500055D02032934252D04F4A934204D0203271
:102D6000934201D00BB030BD4C4C4D48D4F8E0300C
:102D700043F00103C4F8E030D4F8E03003F001037D
:102D80000593059BD4F8E03043F00803C4F8E03025
:102D9000D4F8E03003F008030693069BD4F8E03043
:102DA00043F04003C4F8E030D4F8E03003F04003CF
:102DB0000793079BD4F8F03043F40003C4F8F030D5
:102DC000D4F8F03003F400030893089BFFF766FF84
:102DD000D4F8D830296843F001032F4A3048C4F8AA
:102DE000D830891AD4F8D83018BF012103F0010374
:102DF0000993099B0BB0BDE83040FFF7FFBE274C9D
:102E00002848D4F8E03043F00103C4F8E030D4F8A7
:102E1000E03003F001030093009BD4F8E03043F06E
:102E20001003C4F8E030D4F8E03003F0100301934D
:102E3000019BD4F8E03043F04003C4F8E030D4F80C
:102E4000E03003F040030293029BD4F8F03043F4E7
:102E50008003C4F8F030D4F8F03003F48003039317
:102E6000039BFFF71BFFD4F8D830296843F0010318
:102E7000084A0C48C4F8D830891AD4F8D83018BF9A
:102E8000012103F001030493049B0BB0BDE8304023
:102E9000FFF7B4BE04580140045C014000440258EE
:102EA000A81100244C0F0024014802F07DBE00BF91
:102EB000A4100024014802F077BE00BF1C110024BA
:102EC000014802F071BE00BF00130024014802F067
:102ED0006BBE00BF781300241A4A0368934210B4F3
:102EE0000BD02032934208D0174A934216D020329A
:102EF000934213D05DF8044B7047144B0022D3F873
:102F00005442C3F85822002CF4D0D3F84802D3E935
:102F1000931223465DF8044B520818470B4B0022CE
:102F2000D3F8B044C3F8B424002CE3D0D3F8AC24D5
:102F3000D3F8A814D3F8A404520823465DF8044B30
:102F4000184700BF04580140045C01404C0F0024A6
:102F5000184A0368934210B40BD02032934208D031
:102F6000154A934217D02032934214D05DF8044B97
:102F70007047124BD3E994245208C3F85822002C0E
:102F8000F4D0D3E99201234601EB820100EB8200E9
:102F90005DF8044B1847094BD3F8AC24D3F8B04480
:102FA0005208C3F8B424002CE0D0D3F8A814D3F806
:102FB000A404E8E704580140045C01404C0F0024DD
:102FC0002DE9F04F0C684FF41776754F87B004FB6E
:102FD00006F6012C07EB060AC0F800A000F3A0805B
:102FE0000D468E464FF00008D44669A3D3E900236E
:102FF00069A1D1E90001CDE9022306ABCAF85082EC
:1030000003EB8403CDE9040153F810BC53F8083CEA
:10301000CAE992880193BEE80F00ACE80F00BEE851
:103020000F00ACE80F00019B9EE80300CAF828B02F
:10303000CAF8C0308CE803002B69042B0CD8DFE8F9
:1030400003F0737D879103004FF41773554A03FB18
:1030500004739A64C3F8E020AA692B6A002A43D05B
:10306000002B4FF4177308BF022203FB047318BF31
:103070000322DA6201221A63EA696B6A002A40D1EC
:10308000191E4FF4177318BF012103FB0473C3E922
:1030900031126B69022B05D8434A12F80380434A68
:1030A00052F823904FF4177306F128004246494620
:1030B00003FB04740023384463646363E365C4F86A
:1030C000DC30C4F8CC30C4F8F430C4E90F33C4E9C0
:1030D0001533C4E93533C4E93B33022307F0F6FB6B
:1030E000002849D0FFBEFEE7191E4FF4177318BF22
:1030F000012103FB0473C3E90B12EA696B6A002A1E
:10310000BED0002B4FF4177308BF022203FB0473D9
:1031100018BF0322C3F8C4200122C3F8C820B8E7AF
:10312000012007B0BDE8F08F4FF417734FF4FA5247
:1031300003FB04739A64C3F8E0208DE74FF4177320
:103140004FF47A5203FB04739A64C3F8E02083E7D8
:103150004FF417734FF4FA4203FB04739A64C3F8F5
:10316000E02079E74FF417734BF6803203FB0473CA
:103170009A64C3F8E0206FE706F1C00002234246DC
:103180004946384407F0A2FB0028CAD0FFBEFEE73C
:1031900004580140045C014024580140245C014073
:1031A0004C0F0024007701001C18010820180108AA
:1031B0000068704770B5046882B015460E46C4F8C2
:1031C0005032C4E99212069AC4F85422A269012A24
:1031D00026D0626A012A9AB211D0294604F1C000B1
:1031E000019207F02FFC236A019A012B10D0294687
:1031F00004F1280007F026FC002002B070BD04F1A5
:10320000C000019207F0B0FC236A019A012BEED1B5
:10321000314604F1280007F0A7FC002002B070BD81
:10322000226A012A9AB211D0294604F1280001929B
:1032300007F008FC636A019A012B10D0294604F1BB
:10324000C00007F0FFFB002002B070BD04F12800B1
:10325000019207F089FC636A019A012BEED1314695
:1032600004F1C00007F080FC002002B070BD00BF78
:1032700003681B69042B05D8044A02EB830393ED12
:10328000000A70479FED020A704700BF2C18010822
:1032900000803B470368D3F858027047F0B500231D
:1032A00087B0022204460493CDE9022390F820223D
:1032B000D0F824320B2A4FEA430525D194F8222274
:1032C0000B2A02D1002007B0F0BD49496B1C4948C8
:1032D00051F8233045780178187894F823628842B1
:1032E0006AD0824278D0D87803F1030C81426FD043
:1032F000824279D0987903F1060C884270D08242DC
:1033000033D0012007B0F0BD394B3A4853F825308F
:1033100001784678187894F821C281423ED08242E2
:1033200042D0D87803F1030E814241D082424BD083
:10333000987903F1060E884242D08242E1D1DB79CE
:103340006345DED1734604F508769B7830460593D5
:1033500001F0B4FD034630461E4601F0B7FD01A959
:103360000190304602F072FFA8E7DB79B342C8D182
:10337000634604F222249B782046059301F09EFDCB
:10338000034620461C4601F0A1FD034601A9204644
:10339000019302F05BFF002007B0F0BD93F801E05D
:1033A000B645BED08242BCD158786045B9D1CAE793
:1033B0001F79B742BAD1BBE75F78AF4291D192E7AC
:1033C000D979B142B9D19CE718796045B0D1B9E754
:1033D0001F79AF428CD18DE75878B04283D1C8E7CE
:1033E000D979A9428BD18CE71879B04282D1BFE755
:1033F0006800002464000024826F12682DE9F04107
:103400005268C0B0D0E94234591E9A1A1C1B0A40B7
:103410001444B4FBF3F103FB1144A34248D3D0F8A6
:1034200010610546D6F80031D6F80411013B5B1A4D
:10343000D6F80411DBB2A34294BFC9180919C6F823
:103440000411D6F80431B3F5807F05D9D6F80431DC
:10345000A3F58073C6F80431C5F80C21D6F8002115
:10346000A718B7F5807F24D9C2F58078B118D2F5B6
:10347000807223D1444502D0B4EB080222D1FFB2BE
:1034800005F58C78C6F80071D5F81C022618B6F53B
:10349000807F8CBFC0F580772746CFB9BC4201D072
:1034A000E21B1BD1F6B2C5F81C6240B0BDE8F0814A
:1034B000FEE7B1182246002CE1D0A04668460CF089
:1034C0001BFFD7E70DEB080031460CF015FFD6E7E0
:1034D00040443A4669460CF00FFFDFE70DEB070169
:1034E000F6B240460CF008FFC5F81C6240B0BDE8DB
:1034F000F08100BF204A0368934225D0A2F54C42D8
:10350000934228D002F58062934226D002F5806271
:10351000934224D002F58062934222D002F54442C5
:10352000934220D0A2F51C4293421ED002F5806245
:1035300093421CD0114A93421BD00020DB69DB066A
:1035400000D47047FFF758BF00224FF40F710C48AA
:1035500001FB0200F2E70122F7E70222F5E703226E
:10356000F3E70422F1E70522EFE70622EDE7072261
:10357000EBE70822E9E700BF00100140000C00580B
:1035800004140024214A0368D0F88810934228D0FC
:10359000A2F54C42934226D002F58062934224D099
:1035A00002F58062934222D002F58062934220D0DD
:1035B00002F5444293421ED0A2F51C4293421CD015
:1035C00002F5806293421AD0114A934219D108221F
:1035D000104B4FF40F70002100FB023383F81411DD
:1035E00070470022F4E70122F2E70222F0E703220B
:1035F000EEE70422ECE70522EAE70622E8E70722E5
:10360000E6E7002383F81431FFDE00BF001001401D
:10361000000C0058041400249C4A036893422DE9CE
:10362000F04104468EB000F0F380A2F54C42934284
:1036300000F0F08002F58062934200F0EF8002F526
:103640008062934200F0E88002F58062934200F0CD
:10365000E78002F54442934200F0E480A2F51C4268
:10366000934200F00C8102F58062934200F00581E4
:10367000874A934240F0058108264FF40F78854F22
:1036800008FB06F807EB080595F8220201F026FC76
:1036900095F8200201F022FCD5F82432082B13D82B
:1036A000DFE803F029374553616F7D8B05007A4BC6
:1036B000D3F8F42042F00802C3F8F420D3F8F43031
:1036C00003F008030893089B2846FFF7E7FD01284D
:1036D0000FD04FF40F756D4A06FB05F57B597E1927
:1036E000934278D01A6842F010021A600EB0BDE81A
:1036F000F081FFBEFEE7684BD3F8F02042F01002E5
:10370000C3F8F020D3F8F03003F010030093009BCF
:10371000DAE7614BD3F8E82042F40032C3F8E8203E
:10372000D3F8E83003F400330193019BCCE75A4B04
:10373000D3F8E82042F48022C3F8E820D3F8E83038
:1037400003F480230293029BBEE7534BD3F8E82097
:1037500042F40022C3F8E820D3F8E83003F4002351
:103760000393039BB0E74C4BD3F8E82042F480125C
:10377000C3F8E820D3F8E83003F480130493049BE3
:10378000A2E7454BD3F8F02042F02002C3F8F02026
:10379000D3F8F03003F020030593059B94E73E4BEC
:1037A000D3F8E82042F08042C3F8E820D3F8E830AC
:1037B00003F080430693069B86E7374BD3F8E82057
:1037C00042F00042C3F8E820D3F8E83003F00043A9
:1037D0000793079B78E70023304A08F18C08C6E975
:1037E0002533C6E92833C6E92B332923B844C6E973
:1037F00023234FF480634046C6F89C304FF4807317
:10380000C6F8A83001F058FE844668B1FFBEFEE756
:10381000002632E7012630E703262EE702262CE7B2
:1038200004262AE7052628E7C4F878800EA9D6F8EA
:103830008C20D6F82432DFF868E001EB43081368E7
:10384000C6F8C44009AC23F008031360BEE80F00BB
:103850000FC4DEF8003062466146238038F9140C4C
:1038600001F078FCD6F824320EAA02EB430333F9B8
:10387000140C01F0ADFC7B5934E70726FDE6062663
:10388000FBE6002393F82232FFDE00BF0010014068
:10389000000C005804140024004402588800024020
:1038A0008417010810B5264C204607F033FC236826
:1038B000DA69D10600D410BD224A93422FD0A2F576
:1038C0004C4293422DD002F5806293422BD002F5F8
:1038D0008062934229D002F58062934227D002F59C
:1038E0004442934225D0A2F51C42934223D002F5D4
:1038F0008062934221D0144A93420AD00020DA69B0
:10390000D20602D410221A6210BDFFF775FD23689B
:10391000F8E708204FF40F7202FB0040EFE70020A9
:10392000F8E70120F6E70220F4E70320F2E704209D
:10393000F0E70520EEE70620ECE70720EAE700BF06
:103940000414002400100140000C005810B5274C4E
:1039500004F50F7007F0DEFBD4F83C32DA69D106CB
:1039600000D410BD224A934230D0A2F54C4293427B
:103970002ED002F5806293422CD002F580629342F1
:103980002AD002F58062934228D002F54442934245
:1039900026D0A2F51C42934224D002F580629342C5
:1039A00022D0144A93420BD00020DA69D20602D406
:1039B00010221A6210BDFFF71FFDD4F83C32F7E762
:1039C00008204FF40F7202FB0040EEE70020F8E7FA
:1039D0000120F6E70220F4E70320F2E70420F0E7F5
:1039E0000520EEE70620ECE70720EAE704140024B0
:1039F00000100140000C005810B5274C04F58F60F2
:103A000007F088FBD4F87834DA69D10600D410BD09
:103A1000224A934230D0A2F54C4293422ED002F576
:103A2000806293422CD002F5806293422AD002F544
:103A30008062934228D002F54442934226D0A2F5F8
:103A40001C42934224D002F58062934222D0144A51
:103A500093420BD00020DA69D20602D410221A62F7
:103A600010BDFFF7C9FCD4F87834F7E708204FF40D
:103A70000F7202FB0040EEE70020F8E70120F6E7B6
:103A80000220F4E70320F2E70420F0E70520EEE748
:103A90000620ECE70720EAE70414002400100140A8
:103AA000000C005810B5274C04F2B46007F032FB4C
:103AB000D4F8B436DA69D10600D410BD224A934254
:103AC00030D0A2F54C4293422ED002F58062934250
:103AD0002CD002F5806293422AD002F58062934294
:103AE00028D002F54442934226D0A2F51C429342CC
:103AF00024D002F58062934222D0144A93420BD024
:103B00000020DA69D20602D410221A6210BDFFF733
:103B100073FCD4F8B436F7E708204FF40F7202FBB9
:103B20000040EEE70020F8E70120F6E70220F4E786
:103B30000320F2E70420F0E70520EEE70620ECE79B
:103B40000720EAE70414002400100140000C00588C
:103B500010B5274C04F50F6007F0DCFAD4F8F03804
:103B6000DA69D10600D410BD224A934230D0A2F5C2
:103B70004C4293422ED002F5806293422CD002F543
:103B8000806293422AD002F58062934228D002F5E7
:103B90004442934226D0A2F51C42934224D002F51F
:103BA0008062934222D0144A93420BD00020DA69FB
:103BB000D20602D410221A6210BDFFF71DFCD4F801
:103BC000F038F7E708204FF40F7202FB0040EEE7F1
:103BD0000020F8E70120F6E70220F4E70320F2E7EF
:103BE0000420F0E70520EEE70620ECE70720EAE7EF
:103BF0000414002400100140000C005810B5274C9C
:103C000004F62C3007F086FAD4F82C3BDA69D1069A
:103C100000D410BD224A934230D0A2F54C429342C8
:103C20002ED002F5806293422CD002F5806293423E
:103C30002AD002F58062934228D002F54442934292
:103C400026D0A2F51C42934224D002F58062934212
:103C500022D0144A93420BD00020DA69D20602D453
:103C600010221A6210BDFFF7C7FBD4F82C3BF7E710
:103C700008204FF40F7202FB0040EEE70020F8E747
:103C80000120F6E70220F4E70320F2E70420F0E742
:103C90000520EEE70620ECE70720EAE704140024FD
:103CA00000100140000C005810B5274C04F6685075
:103CB00007F030FAD4F8683DDA69D10600D410BDB7
:103CC000224A934230D0A2F54C4293422ED002F5C4
:103CD000806293422CD002F5806293422AD002F592
:103CE0008062934228D002F54442934226D0A2F546
:103CF0001C42934224D002F58062934222D0144A9F
:103D000093420BD00020DA69D20602D410221A6244
:103D100010BDFFF771FBD4F8683DF7E708204FF4BA
:103D20000F7202FB0040EEE70020F8E70120F6E703
:103D30000220F4E70320F2E70420F0E70520EEE795
:103D40000620ECE70720EAE70414002400100140F5
:103D5000000C005810B5274C04F6A47007F0DAF9EF
:103D6000D4F8A43FDA69D10600D410BD224A9342A8
:103D700030D0A2F54C4293422ED002F5806293429D
:103D80002CD002F5806293422AD002F580629342E1
:103D900028D002F54442934226D0A2F51C42934219
:103DA00024D002F58062934222D0144A93420BD071
:103DB0000020DA69D20602D410221A6210BDFFF781
:103DC0001BFBD4F8A43FF7E708204FF40F7202FB67
:103DD0000040EEE70020F8E70120F6E70220F4E7D4
:103DE0000320F2E70420F0E70520EEE70620ECE7E9
:103DF0000720EAE70414002400100140000C0058DA
:103E000010B5284C04F5F07007F084F9D4F8E031CF
:103E1000DA69D10600D410BD234A934231D0A2F50D
:103E20004C4293422FD002F5806293422DD002F58E
:103E3000806293422BD002F58062934229D002F532
:103E40004442934227D0A2F51C42934225D002F56A
:103E50008062934223D0154A93420BD00020DA6946
:103E6000D20602D410221A6210BDFFF7C5FAD4F8A8
:103E7000E031F7E708224FF40F710D4801FB020013
:103E8000EDE70022F7E70122F5E70222F3E703223C
:103E9000F1E70422EFE70522EDE70622EBE7072230
:103EA000E9E700BF0424002400100140000C005882
:103EB00004140024014801F077BE00BF90140024D0
:103EC0002DE9F0414FF40F73D1F80480374E8E4640
:103ED00003FB08F70C46B8F1080F07EB0605056071
:103EE00005F5087CBEE80F00ACE80F009EE807006F
:103EF0008CE8070003D8D5F82C32022B02D9012018
:103F0000BDE8F081D5F82822032AF8D8D5F8301278
:103F10000229F4D8D5F834C2BCF1020FEFD8013130
:103F20002348890050F82800B851A06969612149E7
:103F30006860284651F823302B611F4B53F822301C
:103F4000EB601E4B53F82C30AB600023C5E9063301
:103F5000C5E90833AB6208F0C5FC0028CFD10146A3
:103F6000284608F017FD0028C9D10146284608F068
:103F700063FD0028C3D1284608F0EEFC0246002865
:103F8000BDD10F494FF48070F319C1F80421C5F871
:103F900008011046C1F80021C5F81011A3F814213A
:103FA000C5F81C22C5F81822AAE700BF0414002493
:103FB00040180108641801087018010880180108E9
:103FC0000040003092B2006808B506F043FF08BD1B
:103FD00010B50468B4F808212046D4F8101106F092
:103FE000E1FF20B194F8140180F0010010BD01231D
:103FF00084F8143110BD00BF3D4B3E491A883E483D
:10400000DFF824C12DE9F0473C4C3D4DCA80A1F8B2
:104010000320C280A4F80320EA80E280A0F80320F5
:104020001E689B784FEA164EDFF800910B724B71B9
:1040300034490372CA800B72A1F803204B713249D4
:104040004371CA8031480B723149DFF8E480314F47
:10405000DFF8E0A02B7263712F4D2372C2802F4CCA
:104060000372CA802E480B722E492E8085F802E01A
:10407000A5F80320AAF806208AF808306B71EA80B8
:104080002B72A9F8032089F80530A9F8062089F8D1
:104090000830A8F8032088F80530A8F8062088F82A
:1040A0000830268084F802E0A4F803206371E280DF
:1040B000237206800E8080F802E081F802E0A0F80A
:1040C00003204371C2800372A1F803204B71CA80A0
:1040D0000B72ACF803208CF80530ACF806208CF895
:1040E0000830A7F803207B71FA803B72BDE8F087A7
:1040F000640000240401002428010024100100248D
:10410000F80000241C010024B0000024BC0000249E
:10411000D40000244C00002444280024202800243B
:10412000382800242C2800245800002434010024BE
:10413000E0000024EC000024704700BF08B500F048
:10414000CDFFBDE8084001F0CDB800BF064808B576
:1041500003680BB102F08CFA044803681BB1BDE898
:10416000084003F033BA08BD70520024684C0024A4
:10417000064808B503680BB102F07AFA04480368F0
:104180001BB1BDE8084003F021BA08BD70520024FD
:10419000684C0024064808B503680BB102F068FAC1
:1041A000044803681BB1BDE8084003F00FBA08BD1E
:1041B00070520024684C0024704700BF00F0A0BF7C
:1041C0002DE9F041CEB004464C2200210AA80CF0A3
:1041D000A1F82022002102A80CF09CF8BC220021AA
:1041E0001EA80CF097F8022003F0ECFE2368012BC8
:1041F0004FF0000354D0534A02250193C820D16ADE
:10420000514B21F00101D162D26A02F00102019208
:104210009A6942F440429A619B6903F440430193D6
:10422000019B494A93699B04FCD54849022400221A
:1042300001268B6A04274FF0080823F00303234369
:104240008B62052316900AA818934FF480331096BA
:10425000179419941597CDF86880CDE91B22212277
:10426000CDE91344CDE90A2304F096FB00B1FEE743
:104270003F220323294602A8CDE902230022082376
:10428000CDE9042340224023CDE9062340234FF407
:104290008062CDE9082304F0ADFE0346B8B1FEE725
:1042A000294A04250093F0209169264B41F44041AE
:1042B0009161926902F440420092DA6A42F001028E
:1042C000DA62DB6A03F001030093009BA9E7202276
:1042D0004FF4805125934FF440152B9280222D935B
:1042E0001EA83093269135914FF480712492349218
:1042F0000C223394439140F2271120921022CDF8E2
:1043000084802A971F96CDE92E34CDE93B334FF4B4
:104310008033CDE922463193002446930623CDE92C
:104320003E4527934FF48063094C2C931E94CDE9AE
:10433000281205F0BBF800B1FEE703F069FE4EB0AD
:10434000BDE8F081000400580048025800440258BB
:104350000F130F032DE9F0410D46044684B0D1E957
:10436000000184E8030000F089FEAE797EB36F4659
:104370000AF0B0FFFDF7F4FF0AF0F6FC2B79002BF2
:104380004ED16B799BB1BFF34F8FBFF36F8F394B1A
:104390000022C3F85022BFF34F8FBFF36F8F5A69CB
:1043A00042F400325A61BFF34F8FBFF36F8F002288
:1043B000002339463048CDE900230AF01FFF2E487C
:1043C0000AF07EFF0AF0A8F904B0BDE8F0812046AB
:1043D0006F46FFF7F5FE012400F032FF4FF0405327
:1043E0004FF4807838460193244BADF80040CDE976
:1043F000023800F043FF19224FF0404338468DF851
:104400000F40ADF80D808DF801408DF80A608DF8F1
:104410000820019300F032FF042000F01FFFA7E7FF
:10442000144C0023C4F88430BFF34F8FD4F880308D
:1044300043F6E07EC3F3C906C3F34E334FEA431C91
:104440000CEA0E00334640EA8372013BC4F8602256
:104450005A1CF8D1ACF1200C1CF1200FF0D1BFF3A5
:104460004F8F636943F480336361BFF34F8FBFF3B2
:104470006F8F86E700ED00E0502800240E00010356
:1044800004F0E8BE1C4B9B6803F17842B2F5003F94
:1044900025D3B3F5803F20D303F16042B2F5003F4E
:1044A0001FD303F15C42B2F5002F1CD303F170421D
:1044B000B2F5902F19D303F14842B2F5803F16D3DD
:1044C00003F18042B2F1806F13D303F1E043B3F5FF
:1044D000000F2CBF082007207047012070470020E4
:1044E0007047022070470320704704207047052062
:1044F00070470620704700BF00ED00E0034800232E
:10450000034A044903600BF0AFBE00BF50280024EB
:10451000000000243941000810B4204C0022204B38
:1045200083B0D4F888101F4841F47001C4F8881093
:1045300019681D4C41F0010119601A6119680840A1
:104540001A4918609A61DA611A629A62DA621A6329
:104550005A639A63DA631A645A64186820F48020F4
:1045600018601A66D3F8DC2042F06042C3F8DC2001
:10457000D3F8DC300193019B23681940B1F1005F4F
:1045800003D20B4B0122C3F80821044B4FF0006209
:104590009A6003B05DF8044B704700BF00ED00E087
:1045A000004402587FEDF6EA0010005C0000FFFFB7
:1045B00000800051704700BF0020704770B504466E
:1045C000074E0D463046214609F0BCFB304609F047
:1045D000DBFB044B204629461B689847002070BD32
:1045E000340600245448002470B50446074E0D4696
:1045F0003046214609F0A6FB304609F0C5FB044BC6
:10460000204629461B689847002070BDD00800242A
:104610005848002400220949094808B509F088FBD8
:104620000849074809F08EFB074B1A680AB10020B9
:1046300008BD064A00201A6008BD00BF5438002497
:10464000340600245428002454480024B5450008AA
:1046500000220949094808B509F06AFB08490748DA
:1046600009F070FB074B1A680AB1002008BD064A22
:1046700000201A6008BD00BF54400024D008002468
:104680005430002458480024B545000820280AD09A
:10469000212806D1094B18689A889B7908608A807E
:1046A0008B7100207047054B0868B1F804C08A7907
:1046B00018600020A3F804C09A71704768010024B4
:1046C00020280AD0212806D1094B18689A889B799E
:1046D00008608A808B7100207047054B0868B1F82C
:1046E00004C08A7918600020A3F804C09A7170474A
:1046F000700100240020704710B5094CD4F89032A6
:10470000D3F814320BB1012010BD0A4601462046F1
:1047100009F00EFB2046BDE8104009F01BBB00BFAE
:10472000340600244B4A036830B593428BB04FF0F7
:104730000004CDE90444CDE90644089404D0464A77
:10474000934249D00BB030BD444D4FF4C052444861
:10475000D5F8E03043F00103C5F8E030D5F8E0309B
:1047600003F0010300930223009904A9CDE9042377
:104770000A23089301F06AFD4FF40072002304A994
:1047800037480694CDE9042301F060FDD5F8D83010
:104790002246214643F000636220C5F8D830D5F8A0
:1047A000D83003F000630193019B00F0D3FC62203A
:1047B00000F00EFD22462146632000F0CBFC632072
:1047C00000F006FD22462146652000F0C3FC65206E
:1047D00000F0FEFC0BB030BD204D4FF4404204A968
:1047E000D5F8E03043F00203C5F8E030D5F8E0300A
:1047F00003F002030293022302981A48CDE904232E
:104800000C23089301F022FDD5F8D830224621462A
:104810004A2043F00073C5F8D830D5F8D83003F0FB
:1048200000730393039B00F095FC4A2000F0D0FC3A
:10483000224621464B2000F08DFC4B2000F0C8FCA6
:10484000224621464D2000F085FC4D2000F0C0FCA2
:104850000BB030BD00000840000004400044025886
:10486000000002580004025800F57171D0F80404E9
:1048700009F0F6BAC1EBC10300EB8303D0F80404DE
:10488000D3F8082209F01ABBC1EBC10300EB830384
:10489000D0F804049A6C09F04FBB00BFD0F80404B0
:1048A00009F0EEBBC16810B5044619B1022900D069
:1048B000FEE70121D4F8040409F0CCFBD4F8040489
:1048C000BDE8104009F09EBB10B50446D0F80404C2
:1048D00009F0C4FB2268D2F8003E43F00103C2F89D
:1048E000003E236A23B1034A136943F006031361B0
:1048F00010BD00BF00ED00E0D0F8040409F0B8BB23
:10490000D0F8040409F0CCBBD0F8040409F0C6BB0D
:10491000D0F8040409F0C6BBD0F8040409F0C4BB05
:1049200070B5067804461EB1012E30D0002070BD4F
:10493000304D0923304AC5F80404C0F8985228467F
:104940002E612E63C5E9002302230222EB600023BF
:10495000C5E9062300220023C5E90823012201231B
:10496000C5E90A2302F07AFD00B1FEE7802128465E
:1049700003F008FB31464022284603F0D9FA802292
:104980000121284603F0D4FA2678012ECED11B4D02
:1049900009221B4B00216A6002222B600223C5F80A
:1049A00004442846EB600023C4F898522961C5E905
:1049B000062300220023C5E90823C5E90C230122B0
:1049C0000023C5E90A2302F049FD044600B1FEE7D1
:1049D0004FF40071284603F0D5FA2146802228467C
:1049E00003F0A6FA4FF4BA723146284603F0A0FA53
:1049F0009CE700BF6048002400000840684C002489
:104A000000000440D0F8980208B502F0BDFD03286C
:104A100002D8024B185C08BD022008BD9C18010892
:104A20009446D0F898021A4608B5634603F032F966
:104A3000032802D8024B185C08BD022008BD00BF45
:104A40009C180108D0F8980208B503F061F9032812
:104A500002D8024B185C08BD022008BD9C18010852
:104A6000D0F8980208B503F0E3F9032802D8024B06
:104A7000185C08BD022008BD9C180108D0F89802F7
:104A800008B503F019FA032802D8024B185C08BDD8
:104A9000022008BD9C1801080A06D0F8983206D4F6
:104AA000C1EBC10103EB810191F8FE01704701F0F8
:104AB0007F01C1EBC10103EB810191F83E0070471A
:104AC000D0F8980208B503F0CFF8032802D8024BBB
:104AD000185C08BD022008BD9C180108D0F8980297
:104AE00008B503F07DF9032802D8024B185C08BD15
:104AF000022008BD9C180108D0F8980208B503F000
:104B00003DF9032802D8024B185C08BD022008BDFD
:104B10009C180108D0F8980203F058B912230148F4
:104B20000B807047C4010024122301480B8070479A
:104B3000B0010024042301480B807047D8010024F1
:104B400010B5044C0A460448214609F02DFD2046C4
:104B500010BD00BF70500024A018010810B5044C0F
:104B60000A460448214609F01FFD204610BD00BF3B
:104B700070500024B018010810B5044C0A460448CF
:104B8000214609F011FD204610BD00BF70500024E1
:104B9000C418010810B5044C0A460448214609F01F
:104BA00003FD204610BD00BF70500024D01801083E
:104BB00010B5044C0A460448214609F0F5FC20468D
:104BC00010BD00BF70500024E01801080423014804
:104BD0000B807047D801002410B5044C0A460448E5
:104BE000214609F0E1FC204610BD00BF70500024B2
:104BF000A0180108464A4FF01A0CD2F80008D2F863
:104C00000838A1F800C0C31801D142487047180FF6
:104C1000B3F1204FD2F804184FF0000C3D4A2CBFDE
:104C20003730303082F803C04FF0000C9070C3F37F
:104C3000036082F805C04FF0000C092882F807C015
:104C40004FF0000C8CBF3730303082F809C04FF085
:104C5000000C1071C3F3035082F80BC04FF0000C2E
:104C6000092882F80DC08CBF373030309071C3F303
:104C7000034009288CBF373030301072C3F3033043
:104C800009288CBF373030309072C3F303200928D5
:104C90008CBF373030301073C3F3031003F00F03B1
:104CA00009288CBF37303030092B90734FF000004B
:104CB00094BF30333733B1F1204FD07313744FEAC0
:104CC00011734FF000002CBF373330335074002085
:104CD0009374C1F30363D0740020092B50754FF017
:104CE00000008CBF37333033D0751375C1F30353D5
:104CF0000848092B8CBF373330339375C1F3034316
:104D0000092B94BF30333733137600235376704723
:104D100000E0F11FDC010024464A4FF01A0CD2F8E3
:104D20000008D2F80838A1F800C0C31801D14248E1
:104D30007047180FB3F1204FD2F804184FF0000C51
:104D40003D4A2CBF3730303082F803C04FF0000CA2
:104D50009070C3F3036082F805C04FF0000C09287F
:104D600082F807C04FF0000C8CBF3730303082F82B
:104D700009C04FF0000C1071C3F3035082F80BC050
:104D80004FF0000C092882F80DC08CBF373030304E
:104D90009071C3F3034009288CBF37303030107254
:104DA000C3F3033009288CBF373030309072C3F31F
:104DB000032009288CBF373030301073C3F3031041
:104DC00003F00F0309288CBF37303030092B907364
:104DD0004FF0000094BF30333733B1F1204FD07320
:104DE00013744FEA11734FF000002CBF3733303388
:104DF000507400209374C1F30363D0740020092B16
:104E000050754FF000008CBF37333033D0751375B9
:104E1000C1F303530848092B8CBF373330339375E4
:104E2000C1F30343092B94BF303337331376002388
:104E30005376704700E0F11FDC01002410B5044CEC
:104E40000A460448214609F0AFFB204610BD00BFCA
:104E500070500024D018010810B5044C0A460448CC
:104E6000214609F0A1FB204610BD00BF7050002470
:104E7000C4180108D0F8C00209F008BCD0F8C0027C
:104E800009F01CBCD0F8C00209F024BC704700BF78
:104E9000D0F8C00209F00ABCD0F8C00209F00ABC80
:104EA000D0F8D00308B501F0A3FF032802D8024BC5
:104EB000185C08BD022008BDF4180108024B0278F6
:104EC00053F82200704700BF18190108024B4278BE
:104ED00033F81200704700BFF81801088CB00A2898
:104EE00014D8DFE800F01523313F4D5B69778593D7
:104EF00006004D4BD3F8E02042F48062C3F8E02076
:104F0000D3F8E03003F480630B930B9B0CB0704735
:104F1000454BD3F8E02042F00102C3F8E020D3F87B
:104F2000E03003F001030193019BEFE73E4BD3F820
:104F3000E02042F00202C3F8E020D3F8E03003F0B2
:104F400002030293029BE1E7374BD3F8E02042F0E3
:104F50000402C3F8E020D3F8E03003F00403039325
:104F6000039BD3E7304BD3F8E02042F00802C3F8AC
:104F7000E020D3F8E03003F008030493049BC5E776
:104F8000294BD3F8E02042F01002C3F8E020D3F818
:104F9000E03003F010030593059BB7E7224BD3F8ED
:104FA000E02042F02002C3F8E020D3F8E03003F024
:104FB00020030693069BA9E71B4BD3F8E02042F0A1
:104FC0004002C3F8E020D3F8E03003F04003079339
:104FD000079B9BE7144BD3F8E02042F08002C3F814
:104FE000E020D3F8E03003F080030893089B8DE7BE
:104FF0000D4BD3F8E02042F48072C3F8E020D3F8E0
:10500000E03003F480730993099B7FE7064BD3F8E4
:10501000E02042F40072C3F8E020D3F8E03003F45B
:1050200000730A930A9B71E700440258704700BF5F
:105030000F4B1B780BB90120704710B504464FF495
:105040007A700C4AB0FBF3F31068B0FBF3F000F099
:10505000E1F80F2C00D808B1012010BD0022214634
:105060004FF0FF3000F076F8034B00201C6010BDBD
:10507000F601002440010024F801002438B5032083
:10508000124D00F055F8124C03F014FF114A12496A
:105090009369C3F30323CB5C03F01F0320FA03F3EC
:1050A0000F202B60926902F00F028A5C02F01F024F
:1050B000D3402360FFF7BCFF10B10124204638BD68
:1050C0000446FFF7B3FF204638BD00BF400100246F
:1050D00044010024004402588C180108034A044B80
:1050E00011681B780B441360704700BF34550024CF
:1050F000F6010024014B1868704700BF34550024A6
:1051000038B50446FFF7F6FF0546631C02D0044B92
:105110001B781C44FFF7EEFF431BA342FAD338BDB4
:10512000F6010024014B1868000C70470010005C69
:1051300006494FF6FF0C0002054BCA6800F4E06018
:1051400002EA0C0210430343CB60704700ED00E01D
:105150000000FA051B4BDB68C3F3022300B5C3F163
:10516000070E03F1040CBEF1040F28BF4FF0040E2C
:10517000BCF1060F1AD9033B4FF0FF3C0CFA03FCBD
:1051800022EA0C024FF0FF3C00280CFA0EFC21EA48
:105190000C0101FA03F141EA02010ADB09010A4BA1
:1051A000C9B2034483F800135DF804FB00221346E0
:1051B000E8E700F00F000901044BC9B20344197677
:1051C0005DF804FB00ED00E000E100E0FCEC00E035
:1051D000002807DB00F01F0101234009024A8B4031
:1051E00042F82030704700BF00E100E000280DDBEE
:1051F0004309012200F01F000549203302FA00F0A4
:1052000041F82300BFF34F8FBFF36F8F704700BF8C
:1052100000E100E0431EB3F1807F0CD24FF0E022AA
:10522000002006494FF0F00C5361072381F823C09A
:105230009061136170470120704700BF00ED00E0EE
:10524000BFF35F8F044B00215A6A22F480325A6206
:10525000C3F89410704700BF00ED00E0064B40F02B
:105260000100C3F894005A6A42F480325A62BFF3D4
:105270004F8FBFF36F8F704700ED00E0174A437800
:10528000C2F89830017821B3436800B5C2F89C3069
:10529000C37A90F80CC01B0690F80FE043EA0C7339
:1052A00090F80AC00B43817B43EACC4390F80DC0D1
:1052B00043EA8C4390F809C043EA4143017A43EA48
:1052C0000E4343EA0C2343EA4103C2F8A0305DF8E1
:1052D00004FBC2F89C10C2F8A010704700ED00E07B
:1052E000704700BF08B5FFF7FBFF08BD0268344BED
:1052F000344930B4344D354CAA4218BF9A420CBFE1
:10530000012300238A4208BF43F001033031A24247
:1053100008BF43F0010330348A4208BF43F0010361
:105320003031A24208BF43F0010330348A4208BF43
:1053300043F0010301F55C71A24208BF43F0010391
:1053400004F55C748A4208BF43F001033031A24285
:1053500008BF43F0010330348A4208BF43F0010321
:105360003031A24208BF43F0010330348A4208BF03
:1053700043F001033031A24208BF43F001038A42E7
:1053800008BF43F0010313B9114B9A4213D1D3B2B2
:105390001049114C103BA1FB03515F2B0F4BC1F384
:1053A000021103EA0203615C88BF0433C1658365AF
:1053B000184630BC704722F0FF038365F8E700BF52
:1053C0001000024040000240280002405800024005
:1053D000B8040240ABAAAAAA4819010800FCFFFFC2
:1053E0000368294A294930B4294D2A4CAB4218BFD9
:1053F00093420CBF012200228B4208BF42F00102FF
:105400002831A34208BF42F0010228348B4208BF72
:1054100042F001022831A34208BF42F001028B4250
:1054200008BF42F0010212B91B4A934213D1DBB20A
:105430001A4C1B4A0121083B1A4DA4FB0343456645
:1054400002EB1312C3F30413920001FA03F3026692
:10545000836630BC7047DAB21349144C1944103AD1
:10546000A829A4FB02234FEA131300D80833104ADB
:1054700003F01F0501210F4C1A44A9404466920015
:1054800081660266E5E700BF0854025830540258AE
:105490001C5402584454025894540258CDCCCCCCDD
:1054A0000096001680580258F0FBFDBFABAAAAAACE
:1054B000008200108008024070B50446FFF71AFE13
:1054C000002C00F0C68023680546954A934248D0D8
:1054D0001832934245D0303292498B4218BF9342E2
:1054E00001F130010CBF012200228B4208BF42F0C3
:1054F000010218318B4208BF42F0010218318B4281
:1055000008BF42F0010218318B4208BF42F001028D
:1055100001F556718B4208BF42F0010218318B42EF
:1055200008BF42F0010218318B4208BF42F001026D
:1055300018318B4208BF42F0010218318B4208BF7C
:1055400042F0010218318B4208BF42F001021831CB
:105550008B4208BF42F001021AB9734A934240F0ED
:10556000F5800222002184F8352084F834101A686E
:1055700022F001021A6005E0FFF7BCFD431B052B7A
:1055800040D823681A68D107F6D4D4E902252169E6
:105590002A43A0691D680A4361690A43E16902431D
:1055A0000A4362492940256A2A430A43616A042959
:1055B0002FD01A605A6922F0070211435961204620
:1055C000FFF794FEE26D3F2302F01F0293408360D9
:1055D0002046FFF705FFA368802B3CD06368A06ED0
:1055E000DAB2013BD4E91851072B2A60486026D96A
:1055F0000023C4E91B33636700200123606584F83E
:10560000353070BD202203230120626584F83530D7
:1056100070BDD4E90B5129430A431A605969A26A43
:1056200021F00701114341F00401002DC6D00028EC
:105630004FD1012A6ED032F00202BFD151E0501E8C
:10564000072810D9626FD4E91B31002018604A6026
:10565000D2E7012070BD0023A16ED4E91802636077
:1056600003605160C4E72168314B324DA94218BF35
:10567000994205F114050CBF01230023A94208BF7C
:1056800043F001031435A94208BF43F00103143568
:10569000A94208BF43F001031435A94208BF43F0F3
:1056A00001031435A94208BF43F001033BB9224B63
:1056B000994204D0214B224913449B0003E0214B23
:1056C000214913449B0001228240C4E91B316267D7
:1056D000BBE7B0F5005F0ED0022A05D9032A7FF49C
:1056E0006DAFEA017FF56AAF01234022184662657B
:1056F00084F8353070BD032A3FF660AF01A050F842
:1057000022F000BFE9560008E3560008E9560008F9
:1057100015570008B5F1C07F7FF450AFE4E700BF34
:105720001000024040000240B80402403F8010FEDA
:10573000085402581C540258945402583F820010D6
:10574000400902403F96001640590258324A3348F9
:105750003349834218BF934200F128000CBF012255
:1057600000228B4208BF42F001022831834208BF69
:1057700042F0010228308B4208BF42F0010228317A
:10578000834208BF42F001028B4208BF42F001028F
:1057900012B9244A934238D102220021224D84F8C2
:1057A000341084F835201A681540A268402A2AD09F
:1057B000802A0CBF4FF480400846266AD4E90312C1
:1057C000D20842EAD102616942EAD102A16942EA01
:1057D000D102E16942EAD102144942EA161219449F
:1057E0002A4302431248A0FB010120461A600B091C
:1057F0009B00E365FFF77AFDE26D012302F01F02D3
:1058000093404360E4E61020D7E7402203230120C1
:10581000626584F8353070BD085402581C54025833
:1058200030540258945402580F00FEFFF8ABFDA705
:10583000CDCCCCCC002800F0BC80844690F834005D
:10584000012800F0B88001202DE9F0419CF8354096
:105850008CF83400844208D000224FF400638CF8A6
:105860003420CCF85430BDE8F0810220DCF8005040
:105870007A4C8CF835000020794ECCF854007948E9
:10588000854218BFA54200F118000CBF0124002476
:10589000854208BF44F001041830854208BF44F037
:1058A00001041830854208BF44F0010418308542D5
:1058B00008BF44F0010400F55670854208BF44F06B
:1058C00001041830854208BF44F0010418308542B5
:1058D00008BF44F001041830854208BF44F00104B9
:1058E0001830854208BF44F001041830854208BFD3
:1058F00044F001041830854208BF44F00104183018
:10590000854208BF44F00104A0F59560B54218BF78
:105910008542DCF86C600CBF0120002054EA0008CE
:10592000286820F001002860DCF86400DCF868409A
:10593000DCF85870446040D016B1DCE91C044460C7
:10594000DCF85C004FF03F0E00F01F000EFA00F094
:10595000B860286820F4802028606B60DCF808308C
:10596000402B23D0A960EA602B6823F01E0343F08C
:1059700016032B60DCF840301BB12B6843F00803A2
:105980002B60DCF860301A68D20303D51A6842F441
:1059900080721A601EB1336843F4807333602B68E1
:1059A000002043F001032B60BDE8F081AA60E960AC
:1059B000DAE7012070470220704716B1DCE91C04C9
:1059C00044602948DFF8A8E0754518BF85420EF10C
:1059D000140E0CBF01200020754508BF40F00100E7
:1059E0000EF1140E754508BF40F001000EF1140EC3
:1059F000754508BF40F001000EF1140E754508BF53
:105A000040F001000EF1140E754508BF40F0010092
:105A100010B9164885420ED1DCF85C0000F01F0E6C
:105A2000012000FA0EF078606B60DCF80830402B43
:105A300010D0A960EA602B6823F00E0343F00A033C
:105A40002B60DCF84030002B9BD02B6843F0040324
:105A50002B6096E7AA60E960EDE700BF40000240D6
:105A6000280002405800024008540258945402583A
:105A70001C54025800285FD038B590F835200346F2
:105A8000022A55D10168444A914248D018329142C5
:105A900045D03032414C4248A14218BF914204F1F6
:105AA00048040CBF01220022814208BF42F00102DB
:105AB0003030A14208BF42F001023034814208BFB9
:105AC00042F0010200F55C70A14208BF42F0010201
:105AD00004F55C74814208BF42F001023030A142FB
